{
  "contractName": "SmartContractFactory",
  "abi": [
    {
      "inputs": [
        {
          "name": "_config_address",
          "type": "address"
        }
      ],
      "payable": true,
      "stateMutability": "payable",
      "type": "constructor"
    },
    {
      "constant": false,
      "inputs": [],
      "name": "getAccountService",
      "outputs": [
        {
          "name": "service",
          "type": "address"
        }
      ],
      "payable": false,
      "stateMutability": "nonpayable",
      "type": "function"
    },
    {
      "constant": false,
      "inputs": [],
      "name": "getContractService",
      "outputs": [
        {
          "name": "service",
          "type": "address"
        }
      ],
      "payable": false,
      "stateMutability": "nonpayable",
      "type": "function"
    },
    {
      "constant": false,
      "inputs": [],
      "name": "getTransactionService",
      "outputs": [
        {
          "name": "service",
          "type": "address"
        }
      ],
      "payable": false,
      "stateMutability": "nonpayable",
      "type": "function"
    }
  ],
  "bytecode": "0x608060405260405160208061563483398101806040528101908080519060200190929190505050806000806101000a81548173ffffffffffffffffffffffffffffffffffffffff021916908373ffffffffffffffffffffffffffffffffffffffff16021790555080600160006101000a81548173ffffffffffffffffffffffffffffffffffffffff021916908373ffffffffffffffffffffffffffffffffffffffff1602179055505061557d806100b76000396000f300608060405260043610610057576000357c0100000000000000000000000000000000000000000000000000000000900463ffffffff168063411b10731461005c578063d40fa70e146100b3578063f8f51ed71461010a575b600080fd5b34801561006857600080fd5b50610071610161565b604051808273ffffffffffffffffffffffffffffffffffffffff1673ffffffffffffffffffffffffffffffffffffffff16815260200191505060405180910390f35b3480156100bf57600080fd5b506100c86105b0565b604051808273ffffffffffffffffffffffffffffffffffffffff1673ffffffffffffffffffffffffffffffffffffffff16815260200191505060405180910390f35b34801561011657600080fd5b5061011f6109ff565b604051808273ffffffffffffffffffffffffffffffffffffffff1673ffffffffffffffffffffffffffffffffffffffff16815260200191505060405180910390f35b60008060008060009054906101000a900473ffffffffffffffffffffffffffffffffffffffff1673ffffffffffffffffffffffffffffffffffffffff1663879c30c66040518163ffffffff167c010000000000000000000000000000000000000000000000000000000002815260040180806020018281038252600e8152602001807f4163636f756e7453657276696365000000000000000000000000000000000000815250602001915050602060405180830381600087803b15801561022757600080fd5b505af115801561023b573d6000803e3d6000fd5b505050506040513d602081101561025157600080fd5b81019080805190602001909291905050509150600073ffffffffffffffffffffffffffffffffffffffff168273ffffffffffffffffffffffffffffffffffffffff16141515610377578192508273ffffffffffffffffffffffffffffffffffffffff166319ab453c600160009054906101000a900473ffffffffffffffffffffffffffffffffffffffff166040518263ffffffff167c0100000000000000000000000000000000000000000000000000000000028152600401808273ffffffffffffffffffffffffffffffffffffffff1673ffffffffffffffffffffffffffffffffffffffff168152602001915050600060405180830381600087803b15801561035a57600080fd5b505af115801561036e573d6000803e3d6000fd5b505050506105a8565b61037f610e4e565b604051809103906000f08015801561039b573d6000803e3d6000fd5b5092508273ffffffffffffffffffffffffffffffffffffffff166319ab453c600160009054906101000a900473ffffffffffffffffffffffffffffffffffffffff166040518263ffffffff167c0100000000000000000000000000000000000000000000000000000000028152600401808273ffffffffffffffffffffffffffffffffffffffff1673ffffffffffffffffffffffffffffffffffffffff168152602001915050600060405180830381600087803b15801561045b57600080fd5b505af115801561046f573d6000803e3d6000fd5b505050508290506000809054906101000a900473ffffffffffffffffffffffffffffffffffffffff1673ffffffffffffffffffffffffffffffffffffffff1663fcb146af826040518263ffffffff167c010000000000000000000000000000000000000000000000000000000002815260040180806020018373ffffffffffffffffffffffffffffffffffffffff1673ffffffffffffffffffffffffffffffffffffffff1681526020018281038252600e8152602001807f4163636f756e745365727669636500000000000000000000000000000000000081525060200192505050602060405180830381600087803b15801561056b57600080fd5b505af115801561057f573d6000803e3d6000fd5b505050506040513d602081101561059557600080fd5b8101908080519060200190929190505050505b829250505090565b60008060008060009054906101000a900473ffffffffffffffffffffffffffffffffffffffff1673ffffffffffffffffffffffffffffffffffffffff1663879c30c66040518163ffffffff167c010000000000000000000000000000000000000000000000000000000002815260040180806020018281038252600f8152602001807f436f6e7472616374536572766963650000000000000000000000000000000000815250602001915050602060405180830381600087803b15801561067657600080fd5b505af115801561068a573d6000803e3d6000fd5b505050506040513d60208110156106a057600080fd5b81019080805190602001909291905050509150600073ffffffffffffffffffffffffffffffffffffffff168273ffffffffffffffffffffffffffffffffffffffff161415156107c6578192508273ffffffffffffffffffffffffffffffffffffffff166319ab453c600160009054906101000a900473ffffffffffffffffffffffffffffffffffffffff166040518263ffffffff167c0100000000000000000000000000000000000000000000000000000000028152600401808273ffffffffffffffffffffffffffffffffffffffff1673ffffffffffffffffffffffffffffffffffffffff168152602001915050600060405180830381600087803b1580156107a957600080fd5b505af11580156107bd573d6000803e3d6000fd5b505050506109f7565b6107ce610e5e565b604051809103906000f0801580156107ea573d6000803e3d6000fd5b5092508273ffffffffffffffffffffffffffffffffffffffff166319ab453c600160009054906101000a900473ffffffffffffffffffffffffffffffffffffffff166040518263ffffffff167c0100000000000000000000000000000000000000000000000000000000028152600401808273ffffffffffffffffffffffffffffffffffffffff1673ffffffffffffffffffffffffffffffffffffffff168152602001915050600060405180830381600087803b1580156108aa57600080fd5b505af11580156108be573d6000803e3d6000fd5b505050508290506000809054906101000a900473ffffffffffffffffffffffffffffffffffffffff1673ffffffffffffffffffffffffffffffffffffffff1663fcb146af826040518263ffffffff167c010000000000000000000000000000000000000000000000000000000002815260040180806020018373ffffffffffffffffffffffffffffffffffffffff1673ffffffffffffffffffffffffffffffffffffffff1681526020018281038252600f8152602001807f436f6e747261637453657276696365000000000000000000000000000000000081525060200192505050602060405180830381600087803b1580156109ba57600080fd5b505af11580156109ce573d6000803e3d6000fd5b505050506040513d60208110156109e457600080fd5b8101908080519060200190929190505050505b829250505090565b60008060008060009054906101000a900473ffffffffffffffffffffffffffffffffffffffff1673ffffffffffffffffffffffffffffffffffffffff1663879c30c66040518163ffffffff167c01000000000000000000000000000000000000000000000000000000000281526004018080602001828103825260128152602001807f5472616e73616374696f6e536572766963650000000000000000000000000000815250602001915050602060405180830381600087803b158015610ac557600080fd5b505af1158015610ad9573d6000803e3d6000fd5b505050506040513d6020811015610aef57600080fd5b81019080805190602001909291905050509150600073ffffffffffffffffffffffffffffffffffffffff168273ffffffffffffffffffffffffffffffffffffffff16141515610c15578192508273ffffffffffffffffffffffffffffffffffffffff166319ab453c600160009054906101000a900473ffffffffffffffffffffffffffffffffffffffff166040518263ffffffff167c0100000000000000000000000000000000000000000000000000000000028152600401808273ffffffffffffffffffffffffffffffffffffffff1673ffffffffffffffffffffffffffffffffffffffff168152602001915050600060405180830381600087803b158015610bf857600080fd5b505af1158015610c0c573d6000803e3d6000fd5b50505050610e46565b610c1d610e6e565b604051809103906000f080158015610c39573d6000803e3d6000fd5b5092508273ffffffffffffffffffffffffffffffffffffffff166319ab453c600160009054906101000a900473ffffffffffffffffffffffffffffffffffffffff166040518263ffffffff167c0100000000000000000000000000000000000000000000000000000000028152600401808273ffffffffffffffffffffffffffffffffffffffff1673ffffffffffffffffffffffffffffffffffffffff168152602001915050600060405180830381600087803b158015610cf957600080fd5b505af1158015610d0d573d6000803e3d6000fd5b505050508290506000809054906101000a900473ffffffffffffffffffffffffffffffffffffffff1673ffffffffffffffffffffffffffffffffffffffff1663fcb146af826040518263ffffffff167c010000000000000000000000000000000000000000000000000000000002815260040180806020018373ffffffffffffffffffffffffffffffffffffffff1673ffffffffffffffffffffffffffffffffffffffff168152602001828103825260128152602001807f5472616e73616374696f6e53657276696365000000000000000000000000000081525060200192505050602060405180830381600087803b158015610e0957600080fd5b505af1158015610e1d573d6000803e3d6000fd5b505050506040513d6020811015610e3357600080fd5b8101908080519060200190929190505050505b829250505090565b6040516113f080610e7f83390190565b6040516117528061226f83390190565b604051611b91806139c1833901905600608060405260008060146101000a81548160ff0219169083151502179055506000600260146101000a81548160ff02191690831515021790555034801561004557600080fd5b50336000806101000a81548173ffffffffffffffffffffffffffffffffffffffff021916908373ffffffffffffffffffffffffffffffffffffffff16021790555061135b806100956000396000f3006080604052600436106100af576000357c0100000000000000000000000000000000000000000000000000000000900463ffffffff16806319ab453c146100b45780632843314e146100dd5780633f4ba83a1461010957806343c885ba146101205780635c975abb1461014b57806379502c55146101765780638456cb59146101a1578063c4e552a4146101b8578063f8ac93e8146101e1578063f8b2cb4f146101f8578063fbcbc0f114610235575b600080fd5b3480156100c057600080fd5b506100db60048036036100d69190810190610b56565b610276565b005b3480156100e957600080fd5b506100f261041e565b604051610100929190610f7d565b60405180910390f35b34801561011557600080fd5b5061011e6104ec565b005b34801561012c57600080fd5b5061013561057e565b6040516101429190610fb4565b60405180910390f35b34801561015757600080fd5b50610160610591565b60405161016d9190610fb4565b60405180910390f35b34801561018257600080fd5b5061018b6105a4565b6040516101989190610fcf565b60405180910390f35b3480156101ad57600080fd5b506101b66105ca565b005b3480156101c457600080fd5b506101df60048036036101da9190810190610ccc565b61065e565b005b3480156101ed57600080fd5b506101f6610710565b005b34801561020457600080fd5b5061021f600480360361021a9190810190610b56565b610712565b60405161022c919061100a565b60405180910390f35b34801561024157600080fd5b5061025c60048036036102579190810190610b56565b6107e4565b60405161026d959493929190610f23565b60405180910390f35b600081600260006101000a81548173ffffffffffffffffffffffffffffffffffffffff021916908373ffffffffffffffffffffffffffffffffffffffff160217905550600260009054906101000a900473ffffffffffffffffffffffffffffffffffffffff1673ffffffffffffffffffffffffffffffffffffffff1663879c30c66040518163ffffffff167c010000000000000000000000000000000000000000000000000000000002815260040161032e90610fea565b602060405180830381600087803b15801561034857600080fd5b505af115801561035c573d6000803e3d6000fd5b505050506040513d601f19601f820116820180604052506103809190810190610b7f565b9050600073ffffffffffffffffffffffffffffffffffffffff168173ffffffffffffffffffffffffffffffffffffffff16141515156103be57600080fd5b80600160006101000a81548173ffffffffffffffffffffffffffffffffffffffff021916908373ffffffffffffffffffffffffffffffffffffffff1602179055506001600260146101000a81548160ff0219169083151502179055505050565b606080600160009054906101000a900473ffffffffffffffffffffffffffffffffffffffff1673ffffffffffffffffffffffffffffffffffffffff16632843314e6040518163ffffffff167c0100000000000000000000000000000000000000000000000000000000028152600401600060405180830381600087803b1580156104a757600080fd5b505af11580156104bb573d6000803e3d6000fd5b505050506040513d6000823e3d601f19601f820116820180604052506104e49190810190610c37565b915091509091565b6000809054906101000a900473ffffffffffffffffffffffffffffffffffffffff1673ffffffffffffffffffffffffffffffffffffffff163373ffffffffffffffffffffffffffffffffffffffff1614151561054757600080fd5b600060149054906101000a900460ff16151561056257600080fd5b60008060146101000a81548160ff021916908315150217905550565b600260149054906101000a900460ff1681565b600060149054906101000a900460ff1681565b600260009054906101000a900473ffffffffffffffffffffffffffffffffffffffff1681565b6000809054906101000a900473ffffffffffffffffffffffffffffffffffffffff1673ffffffffffffffffffffffffffffffffffffffff163373ffffffffffffffffffffffffffffffffffffffff1614151561062557600080fd5b600060149054906101000a900460ff1615151561064157600080fd5b6001600060146101000a81548160ff021916908315150217905550565b600160009054906101000a900473ffffffffffffffffffffffffffffffffffffffff1673ffffffffffffffffffffffffffffffffffffffff1663c4e552a48484846040518463ffffffff167c01000000000000000000000000000000000000000000000000000000000281526004016106d993929190611025565b600060405180830381600087803b1580156106f357600080fd5b505af1158015610707573d6000803e3d6000fd5b50505050505050565b565b6000600160009054906101000a900473ffffffffffffffffffffffffffffffffffffffff1673ffffffffffffffffffffffffffffffffffffffff1663f8b2cb4f836040518263ffffffff167c010000000000000000000000000000000000000000000000000000000002815260040161078b9190610f08565b602060405180830381600087803b1580156107a557600080fd5b505af11580156107b9573d6000803e3d6000fd5b505050506040513d601f19601f820116820180604052506107dd9190810190610ca3565b9050919050565b6000806060600080600160009054906101000a900473ffffffffffffffffffffffffffffffffffffffff1673ffffffffffffffffffffffffffffffffffffffff1663fbcbc0f1876040518263ffffffff167c01000000000000000000000000000000000000000000000000000000000281526004016108639190610f08565b600060405180830381600087803b15801561087d57600080fd5b505af1158015610891573d6000803e3d6000fd5b505050506040513d6000823e3d601f19601f820116820180604052506108ba9190810190610ba8565b9450945094509450945091939590929450565b60006108d98235611230565b905092915050565b60006108ed8251611230565b905092915050565b600082601f830112151561090857600080fd5b815161091b61091682611090565b611063565b9150818183526020840193506020810190508385602084028201111561094057600080fd5b60005b83811015610970578161095688826109f0565b845260208401935060208301925050600181019050610943565b5050505092915050565b600082601f830112151561098d57600080fd5b81516109a061099b826110b8565b611063565b9150818183526020840193506020810190508360005b838110156109e657815186016109cc8882610a04565b8452602084019350602083019250506001810190506109b6565b5050505092915050565b60006109fc8251611250565b905092915050565b600082601f8301121515610a1757600080fd5b8151610a2a610a25826110e0565b611063565b91508082526020830160208301858383011115610a4657600080fd5b610a518382846112dd565b50505092915050565b600082601f8301121515610a6d57600080fd5b8135610a80610a7b8261110c565b611063565b91508082526020830160208301858383011115610a9c57600080fd5b610aa78382846112ce565b50505092915050565b600082601f8301121515610ac357600080fd5b8151610ad6610ad18261110c565b611063565b91508082526020830160208301858383011115610af257600080fd5b610afd8382846112dd565b50505092915050565b6000610b12823561127c565b905092915050565b6000610b26825161127c565b905092915050565b6000610b3a8251611298565b905092915050565b6000610b4e82356112a8565b905092915050565b600060208284031215610b6857600080fd5b6000610b76848285016108cd565b91505092915050565b600060208284031215610b9157600080fd5b6000610b9f848285016108e1565b91505092915050565b600080600080600060a08688031215610bc057600080fd5b6000610bce888289016108e1565b9550506020610bdf88828901610b1a565b945050604086015167ffffffffffffffff811115610bfc57600080fd5b610c0888828901610ab0565b9350506060610c1988828901610b2e565b9250506080610c2a88828901610b1a565b9150509295509295909350565b60008060408385031215610c4a57600080fd5b600083015167ffffffffffffffff811115610c6457600080fd5b610c70858286016108f5565b925050602083015167ffffffffffffffff811115610c8d57600080fd5b610c998582860161097a565b9150509250929050565b600060208284031215610cb557600080fd5b6000610cc384828501610b1a565b91505092915050565b600080600060608486031215610ce157600080fd5b6000610cef86828701610b06565b935050602084013567ffffffffffffffff811115610d0c57600080fd5b610d1886828701610a5a565b9250506040610d2986828701610b42565b9150509250925092565b610d3c81611198565b82525050565b6000610d4d82611152565b808452602084019350610d5f83611138565b60005b82811015610d9157610d75868351610e1a565b610d7e8261117e565b9150602086019550600181019050610d62565b50849250505092915050565b6000610da88261115d565b80845260208401935083602082028501610dc185611145565b60005b84811015610dfa578383038852610ddc838351610e6e565b9250610de78261118b565b9150602088019750600181019050610dc4565b508196508694505050505092915050565b610e14816111b8565b82525050565b610e23816111c4565b82525050565b610e32816112bc565b82525050565b6000610e4382611173565b808452610e578160208601602086016112dd565b610e6081611310565b602085010191505092915050565b6000610e7982611168565b808452610e8d8160208601602086016112dd565b610e9681611310565b602085010191505092915050565b6000600f82527f437573746f6d65724163636f756e7400000000000000000000000000000000006020830152604082019050919050565b610ee4816111f0565b82525050565b610ef38161120c565b82525050565b610f028161121c565b82525050565b6000602082019050610f1d6000830184610d33565b92915050565b600060a082019050610f386000830188610d33565b610f456020830187610edb565b8181036040830152610f578186610e38565b9050610f666060830185610eea565b610f736080830184610edb565b9695505050505050565b60006040820190508181036000830152610f978185610d42565b90508181036020830152610fab8184610d9d565b90509392505050565b6000602082019050610fc96000830184610e0b565b92915050565b6000602082019050610fe46000830184610e29565b92915050565b6000602082019050818103600083015261100381610ea4565b9050919050565b600060208201905061101f6000830184610edb565b92915050565b600060608201905061103a6000830186610edb565b818103602083015261104c8185610e38565b905061105b6040830184610ef9565b949350505050565b6000604051905081810181811067ffffffffffffffff8211171561108657600080fd5b8060405250919050565b600067ffffffffffffffff8211156110a757600080fd5b602082029050602081019050919050565b600067ffffffffffffffff8211156110cf57600080fd5b602082029050602081019050919050565b600067ffffffffffffffff8211156110f757600080fd5b601f19601f8301169050602081019050919050565b600067ffffffffffffffff82111561112357600080fd5b601f19601f8301169050602081019050919050565b6000602082019050919050565b6000602082019050919050565b600081519050919050565b600081519050919050565b600081519050919050565b600081519050919050565b6000602082019050919050565b6000602082019050919050565b600073ffffffffffffffffffffffffffffffffffffffff82169050919050565b60008115159050919050565b60007fffffffffffffffffffffffffffffffffffffffff00000000000000000000000082169050919050565b60006fffffffffffffffffffffffffffffffff82169050919050565b600063ffffffff82169050919050565b600067ffffffffffffffff82169050919050565b600073ffffffffffffffffffffffffffffffffffffffff82169050919050565b60007fffffffffffffffffffffffffffffffffffffffff00000000000000000000000082169050919050565b60006fffffffffffffffffffffffffffffffff82169050919050565b600063ffffffff82169050919050565b600067ffffffffffffffff82169050919050565b60006112c782611198565b9050919050565b82818337600083830152505050565b60005b838110156112fb5780820151818401526020810190506112e0565b8381111561130a576000848401525b50505050565b6000601f19601f83011690509190505600a265627a7a72305820f9369e71db4b4b8305bbe9a1cef2233f7d680c73cc10aeded87bee69d61b07656c6578706572696d656e74616cf5003760806040526000600160146101000a81548160ff0219169083151502179055506000600260146101000a81548160ff02191690831515021790555034801561004657600080fd5b5033600160006101000a81548173ffffffffffffffffffffffffffffffffffffffff021916908373ffffffffffffffffffffffffffffffffffffffff1602179055506116bb806100976000396000f3006080604052600436106100af576000357c0100000000000000000000000000000000000000000000000000000000900463ffffffff16806319ab453c146100b45780633f4ba83a146100f757806343c885ba1461010e578063595f78171461013d5780635c975abb146102e857806379502c55146103175780638456cb591461036e5780639d30fb2514610385578063a5f2b34d1461048f578063ceda56911461056f578063f8ac93e8146105bf575b600080fd5b3480156100c057600080fd5b506100f5600480360381019080803573ffffffffffffffffffffffffffffffffffffffff1690602001909291905050506105d6565b005b34801561010357600080fd5b5061010c6107b2565b005b34801561011a57600080fd5b50610123610846565b604051808215151515815260200191505060405180910390f35b34801561014957600080fd5b5061017e600480360381019080803573ffffffffffffffffffffffffffffffffffffffff169060200190929190505050610859565b604051808973ffffffffffffffffffffffffffffffffffffffff1673ffffffffffffffffffffffffffffffffffffffff1681526020018873ffffffffffffffffffffffffffffffffffffffff1673ffffffffffffffffffffffffffffffffffffffff1681526020018763ffffffff1663ffffffff1681526020018663ffffffff1663ffffffff1681526020018573ffffffffffffffffffffffffffffffffffffffff1673ffffffffffffffffffffffffffffffffffffffff1681526020018467ffffffffffffffff1667ffffffffffffffff16815260200183600481111561026257fe5b60ff16815260200180602001828103825283818151815260200191508051906020019080838360005b838110156102a657808201518184015260208101905061028b565b50505050905090810190601f1680156102d35780820380516001836020036101000a031916815260200191505b50995050505050505050505060405180910390f35b3480156102f457600080fd5b506102fd610a16565b604051808215151515815260200191505060405180910390f35b34801561032357600080fd5b5061032c610a29565b604051808273ffffffffffffffffffffffffffffffffffffffff1673ffffffffffffffffffffffffffffffffffffffff16815260200191505060405180910390f35b34801561037a57600080fd5b50610383610a4e565b005b34801561039157600080fd5b5061048d600480360381019080803573ffffffffffffffffffffffffffffffffffffffff169060200190929190803573ffffffffffffffffffffffffffffffffffffffff169060200190929190803563ffffffff169060200190929190803563ffffffff169060200190929190803573ffffffffffffffffffffffffffffffffffffffff169060200190929190803567ffffffffffffffff169060200190929190803560ff169060200190929190803590602001908201803590602001908080601f0160208091040260200160405190810160405280939291908181526020018383808284378201915050505050509192919290505050610ae2565b005b34801561049b57600080fd5b506104f560048036038101908080356fffffffffffffffffffffffffffffffff16906020019092919080356fffffffffffffffffffffffffffffffff169060200190929190803560ff169060200190929190505050610cf0565b60405180806020018281038252838181518152602001915080516000925b8184101561055e57828490602001906020020151600660200280838360005b8381101561054d578082015181840152602081019050610532565b505050509050019260010192610513565b925050509250505060405180910390f35b34801561057b57600080fd5b506105bd600480360381019080803573ffffffffffffffffffffffffffffffffffffffff169060200190929190803560ff169060200190929190505050611365565b005b3480156105cb57600080fd5b506105d461166a565b005b6000816000806101000a81548173ffffffffffffffffffffffffffffffffffffffff021916908373ffffffffffffffffffffffffffffffffffffffff1602179055506000809054906101000a900473ffffffffffffffffffffffffffffffffffffffff1673ffffffffffffffffffffffffffffffffffffffff1663879c30c66040518163ffffffff167c01000000000000000000000000000000000000000000000000000000000281526004018080602001828103825260108152602001807f437573746f6d6572436f6e747261637400000000000000000000000000000000815250602001915050602060405180830381600087803b1580156106d957600080fd5b505af11580156106ed573d6000803e3d6000fd5b505050506040513d602081101561070357600080fd5b81019080805190602001909291905050509050600073ffffffffffffffffffffffffffffffffffffffff168173ffffffffffffffffffffffffffffffffffffffff161415151561075257600080fd5b80600260006101000a81548173ffffffffffffffffffffffffffffffffffffffff021916908373ffffffffffffffffffffffffffffffffffffffff1602179055506001600260146101000a81548160ff0219169083151502179055505050565b600160009054906101000a900473ffffffffffffffffffffffffffffffffffffffff1673ffffffffffffffffffffffffffffffffffffffff163373ffffffffffffffffffffffffffffffffffffffff1614151561080e57600080fd5b600160149054906101000a900460ff16151561082957600080fd5b6000600160146101000a81548160ff021916908315150217905550565b600260149054906101000a900460ff1681565b60008060008060008060006060600260009054906101000a900473ffffffffffffffffffffffffffffffffffffffff1673ffffffffffffffffffffffffffffffffffffffff166317e5f2508a6040518263ffffffff167c0100000000000000000000000000000000000000000000000000000000028152600401808273ffffffffffffffffffffffffffffffffffffffff1673ffffffffffffffffffffffffffffffffffffffff168152602001915050600060405180830381600087803b15801561092357600080fd5b505af1158015610937573d6000803e3d6000fd5b505050506040513d6000823e3d601f19601f8201168201806040525061010081101561096257600080fd5b810190808051906020019092919080519060200190929190805190602001909291908051906020019092919080519060200190929190805190602001909291908051906020019092919080516401000000008111156109c057600080fd5b828101905060208101848111156109d657600080fd5b81518560018202830111640100000000821117156109f357600080fd5b505092919050505097509750975097509750975097509750919395975091939597565b600160149054906101000a900460ff1681565b6000809054906101000a900473ffffffffffffffffffffffffffffffffffffffff1681565b600160009054906101000a900473ffffffffffffffffffffffffffffffffffffffff1673ffffffffffffffffffffffffffffffffffffffff163373ffffffffffffffffffffffffffffffffffffffff16141515610aaa57600080fd5b600160149054906101000a900460ff16151515610ac657600080fd5b60018060146101000a81548160ff021916908315150217905550565b600260009054906101000a900473ffffffffffffffffffffffffffffffffffffffff1673ffffffffffffffffffffffffffffffffffffffff1663a8eae47889898989898989896040518963ffffffff167c0100000000000000000000000000000000000000000000000000000000028152600401808973ffffffffffffffffffffffffffffffffffffffff1673ffffffffffffffffffffffffffffffffffffffff1681526020018873ffffffffffffffffffffffffffffffffffffffff1673ffffffffffffffffffffffffffffffffffffffff1681526020018763ffffffff1663ffffffff1681526020018663ffffffff1663ffffffff1681526020018573ffffffffffffffffffffffffffffffffffffffff1673ffffffffffffffffffffffffffffffffffffffff1681526020018467ffffffffffffffff1667ffffffffffffffff168152602001836004811115610c3757fe5b60ff16815260200180602001828103825283818151815260200191508051906020019080838360005b83811015610c7b578082015181840152602081019050610c60565b50505050905090810190601f168015610ca85780820380516001836020036101000a031916815260200191505b509950505050505050505050600060405180830381600087803b158015610cce57600080fd5b505af1158015610ce2573d6000803e3d6000fd5b505050505050505050505050565b6060600060606000806000806000806000600260009054906101000a900473ffffffffffffffffffffffffffffffffffffffff1673ffffffffffffffffffffffffffffffffffffffff16637bca1056336000809054906101000a900473ffffffffffffffffffffffffffffffffffffffff1673ffffffffffffffffffffffffffffffffffffffff166324d7806c336040518263ffffffff167c0100000000000000000000000000000000000000000000000000000000028152600401808273ffffffffffffffffffffffffffffffffffffffff1673ffffffffffffffffffffffffffffffffffffffff168152602001915050602060405180830381600087803b158015610dfc57600080fd5b505af1158015610e10573d6000803e3d6000fd5b505050506040513d6020811015610e2657600080fd5b81019080805190602001909291905050508e6040518463ffffffff167c0100000000000000000000000000000000000000000000000000000000028152600401808473ffffffffffffffffffffffffffffffffffffffff1673ffffffffffffffffffffffffffffffffffffffff16815260200183151515158152602001826004811115610eaf57fe5b60ff1681526020019350505050602060405180830381600087803b158015610ed657600080fd5b505af1158015610eea573d6000803e3d6000fd5b505050506040513d6020811015610f0057600080fd5b810190808051906020019092919050505098508b6fffffffffffffffffffffffffffffffff16604051908082528060200260200182016040528015610f5f57816020015b610f4c61166c565b815260200190600190039081610f445790505b509750600096505b8b6fffffffffffffffffffffffffffffffff1687101561135257600260009054906101000a900473ffffffffffffffffffffffffffffffffffffffff1673ffffffffffffffffffffffffffffffffffffffff1663016a8598338f6000809054906101000a900473ffffffffffffffffffffffffffffffffffffffff1673ffffffffffffffffffffffffffffffffffffffff166324d7806c336040518263ffffffff167c0100000000000000000000000000000000000000000000000000000000028152600401808273ffffffffffffffffffffffffffffffffffffffff1673ffffffffffffffffffffffffffffffffffffffff168152602001915050602060405180830381600087803b15801561107d57600080fd5b505af1158015611091573d6000803e3d6000fd5b505050506040513d60208110156110a757600080fd5b81019080805190602001909291905050508f6040518563ffffffff167c0100000000000000000000000000000000000000000000000000000000028152600401808573ffffffffffffffffffffffffffffffffffffffff1673ffffffffffffffffffffffffffffffffffffffff168152602001846fffffffffffffffffffffffffffffffff166fffffffffffffffffffffffffffffffff1681526020018315151515815260200182600481111561115a57fe5b60ff16815260200194505050505060c060405180830381600087803b15801561118257600080fd5b505af1158015611196573d6000803e3d6000fd5b505050506040513d60c08110156111ac57600080fd5b8101908080519060200190929190805190602001909291908051906020019092919080519060200190929190805190602001909291908051906020019092919050505095509550955095509550955060c0604051908101604052808773ffffffffffffffffffffffffffffffffffffffff1673ffffffffffffffffffffffffffffffffffffffff1681526020018673ffffffffffffffffffffffffffffffffffffffff1673ffffffffffffffffffffffffffffffffffffffff1681526020018573ffffffffffffffffffffffffffffffffffffffff1673ffffffffffffffffffffffffffffffffffffffff1681526020018467ffffffffffffffff1673ffffffffffffffffffffffffffffffffffffffff1681526020018363ffffffff1673ffffffffffffffffffffffffffffffffffffffff1673ffffffffffffffffffffffffffffffffffffffff1681526020018a6fffffffffffffffffffffffffffffffff1673ffffffffffffffffffffffffffffffffffffffff16815250888881518110151561133557fe5b90602001906020020181905250809c508680600101975050610f67565b8799505050505050505050509392505050565b60008060008060008060006060600260009054906101000a900473ffffffffffffffffffffffffffffffffffffffff1673ffffffffffffffffffffffffffffffffffffffff166317e5f2508b6040518263ffffffff167c0100000000000000000000000000000000000000000000000000000000028152600401808273ffffffffffffffffffffffffffffffffffffffff1673ffffffffffffffffffffffffffffffffffffffff168152602001915050600060405180830381600087803b15801561142f57600080fd5b505af1158015611443573d6000803e3d6000fd5b505050506040513d6000823e3d601f19601f8201168201806040525061010081101561146e57600080fd5b810190808051906020019092919080519060200190929190805190602001909291908051906020019092919080519060200190929190805190602001909291908051906020019092919080516401000000008111156114cc57600080fd5b828101905060208101848111156114e257600080fd5b81518560018202830111640100000000821117156114ff57600080fd5b5050929190505050975097509750975097509750975097508673ffffffffffffffffffffffffffffffffffffffff163273ffffffffffffffffffffffffffffffffffffffff1614801561156857506001600481111561155a57fe5b82600481111561156657fe5b145b151561157357600080fd5b600260009054906101000a900473ffffffffffffffffffffffffffffffffffffffff1673ffffffffffffffffffffffffffffffffffffffff1663e0af172d8b8b6040518363ffffffff167c0100000000000000000000000000000000000000000000000000000000028152600401808373ffffffffffffffffffffffffffffffffffffffff1673ffffffffffffffffffffffffffffffffffffffff16815260200182600481111561162057fe5b60ff16815260200192505050600060405180830381600087803b15801561164657600080fd5b505af115801561165a573d6000803e3d6000fd5b5050505050505050505050505050565b565b60c0604051908101604052806006906020820280388339808201915050905050905600a165627a7a723058209e7069b22e875aab5643b0205c2e856c00533f6fc3b9721b631de267e4586418002960806040526000600160146101000a81548160ff0219169083151502179055506000600360146101000a81548160ff02191690831515021790555034801561004657600080fd5b5033600160006101000a81548173ffffffffffffffffffffffffffffffffffffffff021916908373ffffffffffffffffffffffffffffffffffffffff160217905550611afa806100976000396000f3006080604052600436106100af576000357c0100000000000000000000000000000000000000000000000000000000900463ffffffff16806319ab453c146100b45780633f4ba83a146100f757806343c885ba1461010e57806358afdd051461013d5780635c975abb146102d857806360e768e31461030757806379502c551461040b5780638456cb59146104625780639de0a3b014610479578063b1ff6bb21461056c578063f8ac93e81461065d575b600080fd5b3480156100c057600080fd5b506100f5600480360381019080803573ffffffffffffffffffffffffffffffffffffffff169060200190929190505050610674565b005b34801561010357600080fd5b5061010c6109cd565b005b34801561011a57600080fd5b50610123610a61565b604051808215151515815260200191505060405180910390f35b34801561014957600080fd5b5061017e600480360381019080803573ffffffffffffffffffffffffffffffffffffffff169060200190929190505050610a74565b604051808773ffffffffffffffffffffffffffffffffffffffff1673ffffffffffffffffffffffffffffffffffffffff1681526020018673ffffffffffffffffffffffffffffffffffffffff1673ffffffffffffffffffffffffffffffffffffffff1681526020018573ffffffffffffffffffffffffffffffffffffffff1673ffffffffffffffffffffffffffffffffffffffff168152602001846fffffffffffffffffffffffffffffffff166fffffffffffffffffffffffffffffffff1681526020018367ffffffffffffffff1667ffffffffffffffff16815260200180602001828103825283818151815260200191508051906020019080838360005b8381101561029857808201518184015260208101905061027d565b50505050905090810190601f1680156102c55780820380516001836020036101000a031916815260200191505b5097505050505050505060405180910390f35b3480156102e457600080fd5b506102ed610c13565b604051808215151515815260200191505060405180910390f35b34801561031357600080fd5b506103c2600480360381019080803573ffffffffffffffffffffffffffffffffffffffff169060200190929190803573ffffffffffffffffffffffffffffffffffffffff169060200190929190803567ffffffffffffffff169060200190929190803590602001908201803590602001908080601f0160208091040260200160405190810160405280939291908181526020018383808284378201915050505050509192919290505050610c26565b604051808373ffffffffffffffffffffffffffffffffffffffff1673ffffffffffffffffffffffffffffffffffffffff1681526020018281526020019250505060405180910390f35b34801561041757600080fd5b50610420611016565b604051808273ffffffffffffffffffffffffffffffffffffffff1673ffffffffffffffffffffffffffffffffffffffff16815260200191505060405180910390f35b34801561046e57600080fd5b5061047761103b565b005b34801561048557600080fd5b506104f2600480360381019080803573ffffffffffffffffffffffffffffffffffffffff16906020019092919080356fffffffffffffffffffffffffffffffff16906020019092919080356fffffffffffffffffffffffffffffffff1690602001909291905050506110cf565b60405180806020018281038252838181518152602001915080516000925b8184101561055b57828490602001906020020151600560200280838360005b8381101561054a57808201518184015260208101905061052f565b505050509050019260010192610510565b925050509250505060405180910390f35b34801561057857600080fd5b5061065b600480360381019080803573ffffffffffffffffffffffffffffffffffffffff169060200190929190803573ffffffffffffffffffffffffffffffffffffffff169060200190929190803567ffffffffffffffff169060200190929190803573ffffffffffffffffffffffffffffffffffffffff169060200190929190803567ffffffffffffffff169060200190929190803590602001908201803590602001908080601f0160208091040260200160405190810160405280939291908181526020018383808284378201915050505050509192919290505050611522565b005b34801561066957600080fd5b50610672611aa9565b005b600080826000806101000a81548173ffffffffffffffffffffffffffffffffffffffff021916908373ffffffffffffffffffffffffffffffffffffffff1602179055506000809054906101000a900473ffffffffffffffffffffffffffffffffffffffff1673ffffffffffffffffffffffffffffffffffffffff1663879c30c66040518163ffffffff167c01000000000000000000000000000000000000000000000000000000000281526004018080602001828103825260138152602001807f437573746f6d65725472616e73616374696f6e00000000000000000000000000815250602001915050602060405180830381600087803b15801561077857600080fd5b505af115801561078c573d6000803e3d6000fd5b505050506040513d60208110156107a257600080fd5b81019080805190602001909291905050509150600073ffffffffffffffffffffffffffffffffffffffff168273ffffffffffffffffffffffffffffffffffffffff16141515156107f157600080fd5b81600260006101000a81548173ffffffffffffffffffffffffffffffffffffffff021916908373ffffffffffffffffffffffffffffffffffffffff1602179055506000809054906101000a900473ffffffffffffffffffffffffffffffffffffffff1673ffffffffffffffffffffffffffffffffffffffff1663879c30c66040518163ffffffff167c010000000000000000000000000000000000000000000000000000000002815260040180806020018281038252600e8152602001807f4163636f756e7453657276696365000000000000000000000000000000000000815250602001915050602060405180830381600087803b1580156108f357600080fd5b505af1158015610907573d6000803e3d6000fd5b505050506040513d602081101561091d57600080fd5b81019080805190602001909291905050509050600073ffffffffffffffffffffffffffffffffffffffff168173ffffffffffffffffffffffffffffffffffffffff161415151561096c57600080fd5b80600360006101000a81548173ffffffffffffffffffffffffffffffffffffffff021916908373ffffffffffffffffffffffffffffffffffffffff1602179055506001600360146101000a81548160ff021916908315150217905550505050565b600160009054906101000a900473ffffffffffffffffffffffffffffffffffffffff1673ffffffffffffffffffffffffffffffffffffffff163373ffffffffffffffffffffffffffffffffffffffff16141515610a2957600080fd5b600160149054906101000a900460ff161515610a4457600080fd5b6000600160146101000a81548160ff021916908315150217905550565b600360149054906101000a900460ff1681565b60008060008060006060600260009054906101000a900473ffffffffffffffffffffffffffffffffffffffff1673ffffffffffffffffffffffffffffffffffffffff166365391c20886040518263ffffffff167c0100000000000000000000000000000000000000000000000000000000028152600401808273ffffffffffffffffffffffffffffffffffffffff1673ffffffffffffffffffffffffffffffffffffffff168152602001915050600060405180830381600087803b158015610b3b57600080fd5b505af1158015610b4f573d6000803e3d6000fd5b505050506040513d6000823e3d601f19601f8201168201806040525060c0811015610b7957600080fd5b8101908080519060200190929190805190602001909291908051906020019092919080519060200190929190805190602001909291908051640100000000811115610bc357600080fd5b82810190506020810184811115610bd957600080fd5b8151856001820283011164010000000082111715610bf657600080fd5b505092919050505095509550955095509550955091939550919395565b600160149054906101000a900460ff1681565b60008060008060009054906101000a900473ffffffffffffffffffffffffffffffffffffffff1673ffffffffffffffffffffffffffffffffffffffff166324d7806c336040518263ffffffff167c0100000000000000000000000000000000000000000000000000000000028152600401808273ffffffffffffffffffffffffffffffffffffffff1673ffffffffffffffffffffffffffffffffffffffff168152602001915050602060405180830381600087803b158015610ce757600080fd5b505af1158015610cfb573d6000803e3d6000fd5b505050506040513d6020811015610d1157600080fd5b81019080805190602001909291905050501515610d2d57600080fd5b429050600260009054906101000a900473ffffffffffffffffffffffffffffffffffffffff1673ffffffffffffffffffffffffffffffffffffffff1663ecfa4ba1600089888a868a6040518763ffffffff167c0100000000000000000000000000000000000000000000000000000000028152600401808773ffffffffffffffffffffffffffffffffffffffff1673ffffffffffffffffffffffffffffffffffffffff1681526020018673ffffffffffffffffffffffffffffffffffffffff1673ffffffffffffffffffffffffffffffffffffffff1681526020018567ffffffffffffffff1667ffffffffffffffff1681526020018473ffffffffffffffffffffffffffffffffffffffff1673ffffffffffffffffffffffffffffffffffffffff1681526020018367ffffffffffffffff1667ffffffffffffffff16815260200180602001828103825283818151815260200191508051906020019080838360005b83811015610eaa578082015181840152602081019050610e8f565b50505050905090810190601f168015610ed75780820380516001836020036101000a031916815260200191505b50975050505050505050600060405180830381600087803b158015610efb57600080fd5b505af1158015610f0f573d6000803e3d6000fd5b50505050600360009054906101000a900473ffffffffffffffffffffffffffffffffffffffff1673ffffffffffffffffffffffffffffffffffffffff16637907f13d88876040518363ffffffff167c0100000000000000000000000000000000000000000000000000000000028152600401808373ffffffffffffffffffffffffffffffffffffffff1673ffffffffffffffffffffffffffffffffffffffff1681526020018267ffffffffffffffff166fffffffffffffffffffffffffffffffff16815260200192505050600060405180830381600087803b158015610ff457600080fd5b505af1158015611008573d6000803e3d6000fd5b505050505094509492505050565b6000809054906101000a900473ffffffffffffffffffffffffffffffffffffffff1681565b600160009054906101000a900473ffffffffffffffffffffffffffffffffffffffff1673ffffffffffffffffffffffffffffffffffffffff163373ffffffffffffffffffffffffffffffffffffffff1614151561109757600080fd5b600160149054906101000a900460ff161515156110b357600080fd5b60018060146101000a81548160ff021916908315150217905550565b6060806000806000806000806000808a6fffffffffffffffffffffffffffffffff1660405190808252806020026020018201604052801561112a57816020015b611117611aab565b81526020019060019003908161110f5790505b509850600097505b8a6fffffffffffffffffffffffffffffffff1688101561150f57600260009054906101000a900473ffffffffffffffffffffffffffffffffffffffff1673ffffffffffffffffffffffffffffffffffffffff16631f9d762f328f8f6000809054906101000a900473ffffffffffffffffffffffffffffffffffffffff1673ffffffffffffffffffffffffffffffffffffffff166324d7806c326040518263ffffffff167c0100000000000000000000000000000000000000000000000000000000028152600401808273ffffffffffffffffffffffffffffffffffffffff1673ffffffffffffffffffffffffffffffffffffffff168152602001915050602060405180830381600087803b15801561124957600080fd5b505af115801561125d573d6000803e3d6000fd5b505050506040513d602081101561127357600080fd5b81019080805190602001909291905050506040518563ffffffff167c0100000000000000000000000000000000000000000000000000000000028152600401808573ffffffffffffffffffffffffffffffffffffffff1673ffffffffffffffffffffffffffffffffffffffff1681526020018473ffffffffffffffffffffffffffffffffffffffff1673ffffffffffffffffffffffffffffffffffffffff168152602001836fffffffffffffffffffffffffffffffff166fffffffffffffffffffffffffffffffff1681526020018215151515815260200194505050505060e060405180830381600087803b15801561136b57600080fd5b505af115801561137f573d6000803e3d6000fd5b505050506040513d60e081101561139557600080fd5b8101908080519060200190929190805190602001909291908051906020019092919080519060200190929190805190602001909291908051906020019092919080519060200190929190505050965096509650965096509650965060a0604051908101604052808873ffffffffffffffffffffffffffffffffffffffff1673ffffffffffffffffffffffffffffffffffffffff1681526020018773ffffffffffffffffffffffffffffffffffffffff1673ffffffffffffffffffffffffffffffffffffffff1681526020018673ffffffffffffffffffffffffffffffffffffffff1673ffffffffffffffffffffffffffffffffffffffff168152602001856fffffffffffffffffffffffffffffffff1673ffffffffffffffffffffffffffffffffffffffff1681526020018467ffffffffffffffff1673ffffffffffffffffffffffffffffffffffffffff1681525089898151811015156114f257fe5b90602001906020020181905250819b508780600101985050611132565b8899505050505050505050509392505050565b600073ffffffffffffffffffffffffffffffffffffffff168673ffffffffffffffffffffffffffffffffffffffff161415801561158b57508473ffffffffffffffffffffffffffffffffffffffff168673ffffffffffffffffffffffffffffffffffffffff1614155b80156115a1575060008467ffffffffffffffff16115b15156115ac57600080fd5b8367ffffffffffffffff16600360009054906101000a900473ffffffffffffffffffffffffffffffffffffffff1673ffffffffffffffffffffffffffffffffffffffff1663f8b2cb4f886040518263ffffffff167c0100000000000000000000000000000000000000000000000000000000028152600401808273ffffffffffffffffffffffffffffffffffffffff1673ffffffffffffffffffffffffffffffffffffffff168152602001915050602060405180830381600087803b15801561167457600080fd5b505af1158015611688573d6000803e3d6000fd5b505050506040513d602081101561169e57600080fd5b81019080805190602001909291905050506fffffffffffffffffffffffffffffffff161115156116ca57fe5b600260009054906101000a900473ffffffffffffffffffffffffffffffffffffffff1673ffffffffffffffffffffffffffffffffffffffff1663ecfa4ba13387878787876040518763ffffffff167c0100000000000000000000000000000000000000000000000000000000028152600401808773ffffffffffffffffffffffffffffffffffffffff1673ffffffffffffffffffffffffffffffffffffffff1681526020018673ffffffffffffffffffffffffffffffffffffffff1673ffffffffffffffffffffffffffffffffffffffff1681526020018567ffffffffffffffff1667ffffffffffffffff1681526020018473ffffffffffffffffffffffffffffffffffffffff1673ffffffffffffffffffffffffffffffffffffffff1681526020018367ffffffffffffffff1667ffffffffffffffff16815260200180602001828103825283818151815260200191508051906020019080838360005b83811015611843578082015181840152602081019050611828565b50505050905090810190601f1680156118705780820380516001836020036101000a031916815260200191505b50975050505050505050600060405180830381600087803b15801561189457600080fd5b505af11580156118a8573d6000803e3d6000fd5b50505050600360009054906101000a900473ffffffffffffffffffffffffffffffffffffffff1673ffffffffffffffffffffffffffffffffffffffff16637907f13d87866000036040518363ffffffff167c0100000000000000000000000000000000000000000000000000000000028152600401808373ffffffffffffffffffffffffffffffffffffffff1673ffffffffffffffffffffffffffffffffffffffff1681526020018267ffffffffffffffff166fffffffffffffffffffffffffffffffff16815260200192505050600060405180830381600087803b15801561199057600080fd5b505af11580156119a4573d6000803e3d6000fd5b50505050600360009054906101000a900473ffffffffffffffffffffffffffffffffffffffff1673ffffffffffffffffffffffffffffffffffffffff16637907f13d86866040518363ffffffff167c0100000000000000000000000000000000000000000000000000000000028152600401808373ffffffffffffffffffffffffffffffffffffffff1673ffffffffffffffffffffffffffffffffffffffff1681526020018267ffffffffffffffff166fffffffffffffffffffffffffffffffff16815260200192505050600060405180830381600087803b158015611a8957600080fd5b505af1158015611a9d573d6000803e3d6000fd5b50505050505050505050565b565b60a0604051908101604052806005906020820280388339808201915050905050905600a165627a7a7230582033d5d38546e5daa913a41e8440737473a3381034a6453e385438b21009e21dee0029a165627a7a72305820c70b912e9850c1010692cba8033b59cf7c420e775011ac126a41156a0d025d210029",
  "source": "pragma solidity ^0.4.2;\r\nimport \"../core/Config.sol\";\r\nimport \"../service/AccountService.sol\";\r\nimport \"../service/ContractService.sol\";\r\nimport \"../service/TransactionService.sol\";\r\n\r\ncontract SmartContractFactory{\r\n    Config config;\r\n    address config_address;\r\n\r\n    function SmartContractFactory(address _config_address)public payable{\r\n        config=Config(_config_address);\r\n        config_address=_config_address;\r\n    }\r\n\r\n    function getAccountService() public returns (AccountService service){\r\n        address addr=config.getCurrentVersion(\"AccountService\");\r\n        //\r\n        if(addr!=address(0)){\r\n            service =AccountService(addr);\r\n            service.init(config_address);\r\n        }else{\r\n            service =new AccountService();\r\n            service.init(config_address);\r\n            address publish_addr=address(service);\r\n            config.publishNewVersion(\"AccountService\", publish_addr);\r\n        }\r\n\r\n        return service;\r\n    }\r\n\r\n    function getContractService() public returns (ContractService service){\r\n        address addr=config.getCurrentVersion(\"ContractService\");\r\n        if(addr!=address(0)){\r\n            service =ContractService(addr);\r\n            service.init(config_address);\r\n        }else{\r\n            service =new ContractService();\r\n            service.init(config_address);\r\n            address publish_addr=address(service);\r\n            config.publishNewVersion(\"ContractService\", publish_addr);\r\n        }\r\n        return service;\r\n    }\r\n\r\n    function getTransactionService() public returns (TransactionService service){\r\n        address addr=config.getCurrentVersion(\"TransactionService\");\r\n        if(addr!=address(0)){\r\n            service =TransactionService(addr);\r\n            service.init(config_address);\r\n        }else{\r\n            service =new TransactionService();\r\n            service.init(config_address);\r\n            address publish_addr=address(service);\r\n            config.publishNewVersion(\"TransactionService\", publish_addr);\r\n        }\r\n        return service;\r\n    }\r\n}",
  "sourcePath": "D:\\dapps\\TTVIP\\contracts\\lifecycle\\SmartContractFactory.sol",
  "compiler": {
    "name": "solc",
    "version": "0.4.23+commit.124ca40d.Emscripten.clang"
  },
  "schemaVersion": "2.0.0",
  "updatedAt": "2018-05-17T09:38:42.646Z"
}