{
  "contractName": "TTVIP",
  "abi": [
    {
      "constant": false,
      "inputs": [],
      "name": "unpause",
      "outputs": [],
      "payable": false,
      "stateMutability": "nonpayable",
      "type": "function"
    },
    {
      "constant": true,
      "inputs": [],
      "name": "paused",
      "outputs": [
        {
          "name": "",
          "type": "bool"
        }
      ],
      "payable": false,
      "stateMutability": "view",
      "type": "function"
    },
    {
      "constant": false,
      "inputs": [],
      "name": "pause",
      "outputs": [],
      "payable": false,
      "stateMutability": "nonpayable",
      "type": "function"
    },
    {
      "inputs": [
        {
          "name": "config_addr",
          "type": "address"
        }
      ],
      "payable": true,
      "stateMutability": "payable",
      "type": "constructor"
    },
    {
      "anonymous": false,
      "inputs": [
        {
          "indexed": true,
          "name": "firstParty",
          "type": "address"
        },
        {
          "indexed": true,
          "name": "secondParty",
          "type": "address"
        },
        {
          "indexed": true,
          "name": "txHash",
          "type": "uint256"
        }
      ],
      "name": "Signed",
      "type": "event"
    },
    {
      "anonymous": false,
      "inputs": [
        {
          "indexed": true,
          "name": "from",
          "type": "address"
        },
        {
          "indexed": true,
          "name": "to",
          "type": "address"
        },
        {
          "indexed": true,
          "name": "txHash",
          "type": "uint256"
        }
      ],
      "name": "Transformed",
      "type": "event"
    },
    {
      "constant": false,
      "inputs": [
        {
          "name": "secondParty",
          "type": "address"
        },
        {
          "name": "shareProfit",
          "type": "uint8"
        },
        {
          "name": "expireYear",
          "type": "uint8"
        },
        {
          "name": "txHash",
          "type": "uint160"
        },
        {
          "name": "state",
          "type": "uint8"
        },
        {
          "name": "remark",
          "type": "string"
        }
      ],
      "name": "signContract",
      "outputs": [],
      "payable": false,
      "stateMutability": "nonpayable",
      "type": "function"
    },
    {
      "constant": false,
      "inputs": [
        {
          "name": "txHash",
          "type": "uint160"
        },
        {
          "name": "state",
          "type": "uint8"
        }
      ],
      "name": "confirmContract",
      "outputs": [],
      "payable": false,
      "stateMutability": "nonpayable",
      "type": "function"
    },
    {
      "constant": true,
      "inputs": [
        {
          "name": "start",
          "type": "uint128"
        },
        {
          "name": "rows",
          "type": "uint128"
        },
        {
          "name": "state",
          "type": "uint8"
        }
      ],
      "name": "getContracts",
      "outputs": [
        {
          "name": "",
          "type": "uint160[6][]"
        }
      ],
      "payable": false,
      "stateMutability": "view",
      "type": "function"
    },
    {
      "constant": true,
      "inputs": [
        {
          "name": "txHash",
          "type": "uint160"
        }
      ],
      "name": "getContractDetail",
      "outputs": [
        {
          "name": "",
          "type": "address"
        },
        {
          "name": "",
          "type": "address"
        },
        {
          "name": "",
          "type": "uint32"
        },
        {
          "name": "",
          "type": "uint32"
        },
        {
          "name": "",
          "type": "uint160"
        },
        {
          "name": "",
          "type": "uint64"
        },
        {
          "name": "",
          "type": "uint8"
        },
        {
          "name": "",
          "type": "string"
        }
      ],
      "payable": false,
      "stateMutability": "view",
      "type": "function"
    },
    {
      "constant": false,
      "inputs": [
        {
          "name": "to",
          "type": "address"
        },
        {
          "name": "amount",
          "type": "uint64"
        },
        {
          "name": "txHash",
          "type": "uint160"
        },
        {
          "name": "remark",
          "type": "string"
        }
      ],
      "name": "transform",
      "outputs": [],
      "payable": false,
      "stateMutability": "nonpayable",
      "type": "function"
    },
    {
      "constant": false,
      "inputs": [
        {
          "name": "to",
          "type": "address"
        },
        {
          "name": "txHash",
          "type": "uint160"
        },
        {
          "name": "amount",
          "type": "uint64"
        },
        {
          "name": "remark",
          "type": "string"
        }
      ],
      "name": "addFund",
      "outputs": [
        {
          "name": "touser",
          "type": "address"
        },
        {
          "name": "balance",
          "type": "uint256"
        }
      ],
      "payable": false,
      "stateMutability": "nonpayable",
      "type": "function"
    },
    {
      "constant": true,
      "inputs": [
        {
          "name": "to",
          "type": "address"
        },
        {
          "name": "start",
          "type": "uint128"
        },
        {
          "name": "rows",
          "type": "uint128"
        }
      ],
      "name": "getTransactions",
      "outputs": [
        {
          "name": "",
          "type": "uint160[5][]"
        }
      ],
      "payable": false,
      "stateMutability": "view",
      "type": "function"
    },
    {
      "constant": true,
      "inputs": [
        {
          "name": "txHash",
          "type": "uint160"
        }
      ],
      "name": "getTransactionDetail",
      "outputs": [
        {
          "name": "",
          "type": "uint160"
        },
        {
          "name": "",
          "type": "address"
        },
        {
          "name": "",
          "type": "address"
        },
        {
          "name": "",
          "type": "uint128"
        },
        {
          "name": "",
          "type": "uint64"
        },
        {
          "name": "",
          "type": "string"
        }
      ],
      "payable": false,
      "stateMutability": "view",
      "type": "function"
    },
    {
      "constant": false,
      "inputs": [
        {
          "name": "userId",
          "type": "uint128"
        },
        {
          "name": "userName",
          "type": "string"
        },
        {
          "name": "balance",
          "type": "uint64"
        }
      ],
      "name": "register",
      "outputs": [],
      "payable": false,
      "stateMutability": "nonpayable",
      "type": "function"
    },
    {
      "constant": true,
      "inputs": [],
      "name": "getAccount",
      "outputs": [
        {
          "name": "",
          "type": "address"
        },
        {
          "name": "",
          "type": "uint128"
        },
        {
          "name": "",
          "type": "string"
        },
        {
          "name": "",
          "type": "uint32"
        },
        {
          "name": "",
          "type": "uint128"
        }
      ],
      "payable": false,
      "stateMutability": "view",
      "type": "function"
    },
    {
      "constant": true,
      "inputs": [],
      "name": "getBalance",
      "outputs": [
        {
          "name": "",
          "type": "uint128"
        }
      ],
      "payable": false,
      "stateMutability": "view",
      "type": "function"
    },
    {
      "constant": true,
      "inputs": [],
      "name": "getAccountList",
      "outputs": [
        {
          "name": "",
          "type": "bytes20[]"
        },
        {
          "name": "",
          "type": "string[]"
        }
      ],
      "payable": false,
      "stateMutability": "view",
      "type": "function"
    },
    {
      "constant": false,
      "inputs": [],
      "name": "refresh",
      "outputs": [],
      "payable": false,
      "stateMutability": "nonpayable",
      "type": "function"
    }
  ],
  "bytecode": "0x608060405260008060146101000a81548160ff021916908315150217905550604051602080620086b483398101806040526200003f919081019062000485565b336000806101000a81548173ffffffffffffffffffffffffffffffffffffffff021916908373ffffffffffffffffffffffffffffffffffffffff160217905550806200008a6200041c565b62000096919062000546565b604051809103906000f080158015620000b3573d6000803e3d6000fd5b50600160006101000a81548173ffffffffffffffffffffffffffffffffffffffff021916908373ffffffffffffffffffffffffffffffffffffffff1602179055506200010d62000114640100000000026401000000009004565b50620005df565b600160009054906101000a900473ffffffffffffffffffffffffffffffffffffffff1673ffffffffffffffffffffffffffffffffffffffff1663411b10736040518163ffffffff167c0100000000000000000000000000000000000000000000000000000000028152600401602060405180830381600087803b1580156200019b57600080fd5b505af1158015620001b0573d6000803e3d6000fd5b505050506040513d601f19601f82011682018060405250620001d69190810190620004b1565b600260006101000a81548173ffffffffffffffffffffffffffffffffffffffff021916908373ffffffffffffffffffffffffffffffffffffffff160217905550600160009054906101000a900473ffffffffffffffffffffffffffffffffffffffff1673ffffffffffffffffffffffffffffffffffffffff1663d40fa70e6040518163ffffffff167c0100000000000000000000000000000000000000000000000000000000028152600401602060405180830381600087803b1580156200029d57600080fd5b505af1158015620002b2573d6000803e3d6000fd5b505050506040513d601f19601f82011682018060405250620002d89190810190620004dd565b600360006101000a81548173ffffffffffffffffffffffffffffffffffffffff021916908373ffffffffffffffffffffffffffffffffffffffff160217905550600160009054906101000a900473ffffffffffffffffffffffffffffffffffffffff1673ffffffffffffffffffffffffffffffffffffffff1663f8f51ed76040518163ffffffff167c0100000000000000000000000000000000000000000000000000000000028152600401602060405180830381600087803b1580156200039f57600080fd5b505af1158015620003b4573d6000803e3d6000fd5b505050506040513d601f19601f82011682018060405250620003da919081019062000509565b600460006101000a81548173ffffffffffffffffffffffffffffffffffffffff021916908373ffffffffffffffffffffffffffffffffffffffff160217905550565b604051615634806200308083390190565b60006200043b825162000583565b905092915050565b6000620004518251620005a3565b905092915050565b6000620004678251620005b7565b905092915050565b60006200047d8251620005cb565b905092915050565b6000602082840312156200049857600080fd5b6000620004a8848285016200042d565b91505092915050565b600060208284031215620004c457600080fd5b6000620004d48482850162000443565b91505092915050565b600060208284031215620004f057600080fd5b6000620005008482850162000459565b91505092915050565b6000602082840312156200051c57600080fd5b60006200052c848285016200046f565b91505092915050565b620005408162000563565b82525050565b60006020820190506200055d600083018462000535565b92915050565b600073ffffffffffffffffffffffffffffffffffffffff82169050919050565b600073ffffffffffffffffffffffffffffffffffffffff82169050919050565b6000620005b08262000563565b9050919050565b6000620005c48262000563565b9050919050565b6000620005d88262000563565b9050919050565b612a9180620005ef6000396000f3006080604052600436106100e6576000357c0100000000000000000000000000000000000000000000000000000000900463ffffffff16806312065fe0146100eb5780632843314e1461011657806334cff351146101425780633f4ba83a1461017f57806356ab35a81461019657806358afdd05146101bf578063595f7817146102015780635c975abb1461024557806360e768e3146102705780638456cb59146102ae5780639c412412146102c55780639de0a3b0146102ee578063c4e552a41461032b578063ceda569114610354578063db613e811461037d578063f8ac93e8146103ac575b600080fd5b3480156100f757600080fd5b506101006103c3565b60405161010d9190612456565b60405180910390f35b34801561012257600080fd5b5061012b610493565b604051610139929190612404565b60405180910390f35b34801561014e57600080fd5b5061016960048036036101649190810190611cc1565b610561565b60405161017691906123e2565b60405180910390f35b34801561018b57600080fd5b5061019461063d565b005b3480156101a257600080fd5b506101bd60048036036101b891908101906119ac565b6106cf565b005b3480156101cb57600080fd5b506101e660048036036101e19190810190611d10565b6107a4565b6040516101f896959493929190612501565b60405180910390f35b34801561020d57600080fd5b5061022860048036036102239190810190611d10565b610891565b60405161023c989796959493929190612148565b60405180910390f35b34801561025157600080fd5b5061025a610987565b604051610267919061243b565b60405180910390f35b34801561027c57600080fd5b50610297600480360361029291908101906118f5565b61099a565b6040516102a5929190612397565b60405180910390f35b3480156102ba57600080fd5b506102c3610a92565b005b3480156102d157600080fd5b506102ec60048036036102e79190810190611a27565b610b26565b005b3480156102fa57600080fd5b50610315600480360361031091908101906118a6565b610be5565b60405161032291906123c0565b60405180910390f35b34801561033757600080fd5b50610352600480360361034d9190810190611c5a565b610cc2565b005b34801561036057600080fd5b5061037b60048036036103769190810190611dda565b610d74565b005b34801561038957600080fd5b50610392610e23565b6040516103a39594939291906122ba565b60405180910390f35b3480156103b857600080fd5b506103c1610f0a565b005b6000600260009054906101000a900473ffffffffffffffffffffffffffffffffffffffff1673ffffffffffffffffffffffffffffffffffffffff1663f8b2cb4f336040518263ffffffff167c010000000000000000000000000000000000000000000000000000000002815260040161043c919061212d565b602060405180830381600087803b15801561045657600080fd5b505af115801561046a573d6000803e3d6000fd5b505050506040513d601f19601f8201168201806040525061048e9190810190611c31565b905090565b606080600260009054906101000a900473ffffffffffffffffffffffffffffffffffffffff1673ffffffffffffffffffffffffffffffffffffffff16632843314e6040518163ffffffff167c0100000000000000000000000000000000000000000000000000000000028152600401600060405180830381600087803b15801561051c57600080fd5b505af1158015610530573d6000803e3d6000fd5b505050506040513d6000823e3d601f19601f820116820180604052506105599190810190611b4a565b915091509091565b6060600360009054906101000a900473ffffffffffffffffffffffffffffffffffffffff1673ffffffffffffffffffffffffffffffffffffffff1663a5f2b34d8585856040518463ffffffff167c01000000000000000000000000000000000000000000000000000000000281526004016105de939291906124af565b600060405180830381600087803b1580156105f857600080fd5b505af115801561060c573d6000803e3d6000fd5b505050506040513d6000823e3d601f19601f820116820180604052506106359190810190611b09565b509392505050565b6000809054906101000a900473ffffffffffffffffffffffffffffffffffffffff1673ffffffffffffffffffffffffffffffffffffffff163373ffffffffffffffffffffffffffffffffffffffff1614151561069857600080fd5b600060149054906101000a900460ff1615156106b357600080fd5b60008060146101000a81548160ff021916908315150217905550565b600060149054906101000a900460ff161515156106eb57600080fd5b600460009054906101000a900473ffffffffffffffffffffffffffffffffffffffff1673ffffffffffffffffffffffffffffffffffffffff1663b1ff6bb23386868642876040518763ffffffff167c010000000000000000000000000000000000000000000000000000000002815260040161076c969594939291906121cd565b600060405180830381600087803b15801561078657600080fd5b505af115801561079a573d6000803e3d6000fd5b5050505050505050565b60008060008060006060600460009054906101000a900473ffffffffffffffffffffffffffffffffffffffff1673ffffffffffffffffffffffffffffffffffffffff166358afdd05886040518263ffffffff167c010000000000000000000000000000000000000000000000000000000002815260040161082591906124e6565b600060405180830381600087803b15801561083f57600080fd5b505af1158015610853573d6000803e3d6000fd5b505050506040513d6000823e3d601f19601f8201168201806040525061087c9190810190611d39565b95509550955095509550955091939550919395565b60008060008060008060006060600360009054906101000a900473ffffffffffffffffffffffffffffffffffffffff1673ffffffffffffffffffffffffffffffffffffffff1663595f78178a6040518263ffffffff167c010000000000000000000000000000000000000000000000000000000002815260040161091591906124e6565b600060405180830381600087803b15801561092f57600080fd5b505af1158015610943573d6000803e3d6000fd5b505050506040513d6000823e3d601f19601f8201168201806040525061096c919081019061174d565b97509750975097509750975097509750919395975091939597565b600060149054906101000a900460ff1681565b600080600060149054906101000a900460ff161515156109b957600080fd5b600460009054906101000a900473ffffffffffffffffffffffffffffffffffffffff1673ffffffffffffffffffffffffffffffffffffffff166360e768e3878787876040518563ffffffff167c0100000000000000000000000000000000000000000000000000000000028152600401610a36949392919061234b565b6040805180830381600087803b158015610a4f57600080fd5b505af1158015610a63573d6000803e3d6000fd5b505050506040513d601f19601f82011682018060405250610a879190810190611970565b505094509492505050565b6000809054906101000a900473ffffffffffffffffffffffffffffffffffffffff1673ffffffffffffffffffffffffffffffffffffffff163373ffffffffffffffffffffffffffffffffffffffff16141515610aed57600080fd5b600060149054906101000a900460ff16151515610b0957600080fd5b6001600060146101000a81548160ff021916908315150217905550565b600360009054906101000a900473ffffffffffffffffffffffffffffffffffffffff1673ffffffffffffffffffffffffffffffffffffffff16639d30fb2533888888884289896040518963ffffffff167c0100000000000000000000000000000000000000000000000000000000028152600401610bab989796959493929190612235565b600060405180830381600087803b158015610bc557600080fd5b505af1158015610bd9573d6000803e3d6000fd5b50505050505050505050565b6060600460009054906101000a900473ffffffffffffffffffffffffffffffffffffffff1673ffffffffffffffffffffffffffffffffffffffff16639de0a3b08585856040518463ffffffff167c0100000000000000000000000000000000000000000000000000000000028152600401610c6293929190612314565b600060405180830381600087803b158015610c7c57600080fd5b505af1158015610c90573d6000803e3d6000fd5b505050506040513d6000823e3d601f19601f82011682018060405250610cb99190810190611ac8565b90509392505050565b600260009054906101000a900473ffffffffffffffffffffffffffffffffffffffff1673ffffffffffffffffffffffffffffffffffffffff1663c4e552a48484846040518463ffffffff167c0100000000000000000000000000000000000000000000000000000000028152600401610d3d93929190612471565b600060405180830381600087803b158015610d5757600080fd5b505af1158015610d6b573d6000803e3d6000fd5b50505050505050565b600360009054906101000a900473ffffffffffffffffffffffffffffffffffffffff1673ffffffffffffffffffffffffffffffffffffffff1663ceda569183836040518363ffffffff167c0100000000000000000000000000000000000000000000000000000000028152600401610ded929190612569565b600060405180830381600087803b158015610e0757600080fd5b505af1158015610e1b573d6000803e3d6000fd5b505050505050565b6000806060600080600260009054906101000a900473ffffffffffffffffffffffffffffffffffffffff1673ffffffffffffffffffffffffffffffffffffffff1663fbcbc0f1336040518263ffffffff167c0100000000000000000000000000000000000000000000000000000000028152600401610ea2919061212d565b600060405180830381600087803b158015610ebc57600080fd5b505af1158015610ed0573d6000803e3d6000fd5b505050506040513d6000823e3d601f19601f82011682018060405250610ef99190810190611817565b945094509450945094509091929394565b600160009054906101000a900473ffffffffffffffffffffffffffffffffffffffff1673ffffffffffffffffffffffffffffffffffffffff1663411b10736040518163ffffffff167c0100000000000000000000000000000000000000000000000000000000028152600401602060405180830381600087803b158015610f9057600080fd5b505af1158015610fa4573d6000803e3d6000fd5b505050506040513d601f19601f82011682018060405250610fc89190810190611bb6565b600260006101000a81548173ffffffffffffffffffffffffffffffffffffffff021916908373ffffffffffffffffffffffffffffffffffffffff160217905550600160009054906101000a900473ffffffffffffffffffffffffffffffffffffffff1673ffffffffffffffffffffffffffffffffffffffff1663d40fa70e6040518163ffffffff167c0100000000000000000000000000000000000000000000000000000000028152600401602060405180830381600087803b15801561108e57600080fd5b505af11580156110a2573d6000803e3d6000fd5b505050506040513d601f19601f820116820180604052506110c69190810190611bdf565b600360006101000a81548173ffffffffffffffffffffffffffffffffffffffff021916908373ffffffffffffffffffffffffffffffffffffffff160217905550600160009054906101000a900473ffffffffffffffffffffffffffffffffffffffff1673ffffffffffffffffffffffffffffffffffffffff1663f8f51ed76040518163ffffffff167c0100000000000000000000000000000000000000000000000000000000028152600401602060405180830381600087803b15801561118c57600080fd5b505af11580156111a0573d6000803e3d6000fd5b505050506040513d601f19601f820116820180604052506111c49190810190611c08565b600460006101000a81548173ffffffffffffffffffffffffffffffffffffffff021916908373ffffffffffffffffffffffffffffffffffffffff160217905550565b600061121282356128ce565b905092915050565b600061122682516128ce565b905092915050565b600082601f830112151561124157600080fd5b815161125461124f826125bf565b612592565b915081818352602084019350602081019050838560a084028201111561127957600080fd5b60005b838110156112a9578161128f8882611433565b845260208401935060a0830192505060018101905061127c565b5050505092915050565b600082601f83011215156112c657600080fd5b81516112d96112d4826125e7565b612592565b915081818352602084019350602081019050838560c08402820111156112fe57600080fd5b60005b8381101561132e578161131488826114a9565b845260208401935060c08301925050600181019050611301565b5050505092915050565b600082601f830112151561134b57600080fd5b815161135e6113598261260f565b612592565b9150818183526020840193506020810190508385602084028201111561138357600080fd5b60005b838110156113b35781611399888261151f565b845260208401935060208301925050600181019050611386565b5050505092915050565b600082601f83011215156113d057600080fd5b81516113e36113de82612637565b612592565b9150818183526020840193506020810190508360005b83811015611429578151860161140f8882611597565b8452602084019350602083019250506001810190506113f9565b5050505092915050565b600082601f830112151561144657600080fd5b60056114596114548261265f565b612592565b9150818385602084028201111561146f57600080fd5b60005b8381101561149f578161148588826116d5565b845260208401935060208301925050600181019050611472565b5050505092915050565b600082601f83011215156114bc57600080fd5b60066114cf6114ca82612681565b612592565b915081838560208402820111156114e557600080fd5b60005b8381101561151557816114fb88826116d5565b8452602084019350602083019250506001810190506114e8565b5050505092915050565b600061152b82516128ee565b905092915050565b600061153f825161291a565b905092915050565b6000611553825161292c565b905092915050565b6000611567825161293e565b905092915050565b600061157b8235612950565b905092915050565b600061158f8251612950565b905092915050565b600082601f83011215156115aa57600080fd5b81516115bd6115b8826126a3565b612592565b915080825260208301602083018583830111156115d957600080fd5b6115e4838284612a13565b50505092915050565b600082601f830112151561160057600080fd5b813561161361160e826126cf565b612592565b9150808252602083016020830185838301111561162f57600080fd5b61163a838284612a04565b50505092915050565b600082601f830112151561165657600080fd5b8151611669611664826126cf565b612592565b9150808252602083016020830185838301111561168557600080fd5b611690838284612a13565b50505092915050565b60006116a58235612969565b905092915050565b60006116b98251612969565b905092915050565b60006116cd8235612985565b905092915050565b60006116e18251612985565b905092915050565b60006116f582516129a5565b905092915050565b600061170982516129af565b905092915050565b600061171d82356129bf565b905092915050565b600061173182516129bf565b905092915050565b600061174582356129d3565b905092915050565b600080600080600080600080610100898b03121561176a57600080fd5b60006117788b828c0161121a565b98505060206117898b828c0161121a565b975050604061179a8b828c016116fd565b96505060606117ab8b828c016116fd565b95505060806117bc8b828c016116d5565b94505060a06117cd8b828c01611725565b93505060c06117de8b828c01611583565b92505060e089015167ffffffffffffffff8111156117fb57600080fd5b6118078b828c01611643565b9150509295985092959890939650565b600080600080600060a0868803121561182f57600080fd5b600061183d8882890161121a565b955050602061184e888289016116ad565b945050604086015167ffffffffffffffff81111561186b57600080fd5b61187788828901611643565b9350506060611888888289016116fd565b9250506080611899888289016116ad565b9150509295509295909350565b6000806000606084860312156118bb57600080fd5b60006118c986828701611206565b93505060206118da86828701611699565b92505060406118eb86828701611699565b9150509250925092565b6000806000806080858703121561190b57600080fd5b600061191987828801611206565b945050602061192a878288016116c1565b935050604061193b87828801611711565b925050606085013567ffffffffffffffff81111561195857600080fd5b611964878288016115ed565b91505092959194509250565b6000806040838503121561198357600080fd5b60006119918582860161121a565b92505060206119a2858286016116e9565b9150509250929050565b600080600080608085870312156119c257600080fd5b60006119d087828801611206565b94505060206119e187828801611711565b93505060406119f2878288016116c1565b925050606085013567ffffffffffffffff811115611a0f57600080fd5b611a1b878288016115ed565b91505092959194509250565b60008060008060008060c08789031215611a4057600080fd5b6000611a4e89828a01611206565b9650506020611a5f89828a01611739565b9550506040611a7089828a01611739565b9450506060611a8189828a016116c1565b9350506080611a9289828a0161156f565b92505060a087013567ffffffffffffffff811115611aaf57600080fd5b611abb89828a016115ed565b9150509295509295509295565b600060208284031215611ada57600080fd5b600082015167ffffffffffffffff811115611af457600080fd5b611b008482850161122e565b91505092915050565b600060208284031215611b1b57600080fd5b600082015167ffffffffffffffff811115611b3557600080fd5b611b41848285016112b3565b91505092915050565b60008060408385031215611b5d57600080fd5b600083015167ffffffffffffffff811115611b7757600080fd5b611b8385828601611338565b925050602083015167ffffffffffffffff811115611ba057600080fd5b611bac858286016113bd565b9150509250929050565b600060208284031215611bc857600080fd5b6000611bd684828501611533565b91505092915050565b600060208284031215611bf157600080fd5b6000611bff84828501611547565b91505092915050565b600060208284031215611c1a57600080fd5b6000611c288482850161155b565b91505092915050565b600060208284031215611c4357600080fd5b6000611c51848285016116ad565b91505092915050565b600080600060608486031215611c6f57600080fd5b6000611c7d86828701611699565b935050602084013567ffffffffffffffff811115611c9a57600080fd5b611ca6868287016115ed565b9250506040611cb786828701611711565b9150509250925092565b600080600060608486031215611cd657600080fd5b6000611ce486828701611699565b9350506020611cf586828701611699565b9250506040611d068682870161156f565b9150509250925092565b600060208284031215611d2257600080fd5b6000611d30848285016116c1565b91505092915050565b60008060008060008060c08789031215611d5257600080fd5b6000611d6089828a016116d5565b9650506020611d7189828a0161121a565b9550506040611d8289828a0161121a565b9450506060611d9389828a016116ad565b9350506080611da489828a01611725565b92505060a087015167ffffffffffffffff811115611dc157600080fd5b611dcd89828a01611643565b9150509295509295509295565b60008060408385031215611ded57600080fd5b6000611dfb858286016116c1565b9250506020611e0c8582860161156f565b9150509250929050565b611e1f816127e9565b82525050565b6000611e3082612743565b808452602084019350611e42836126fb565b60005b82811015611e7457611e58868351611fa4565b611e618261279b565b915060a086019550600181019050611e45565b50849250505092915050565b6000611e8b8261274e565b808452602084019350611e9d83612708565b60005b82811015611ecf57611eb3868351611fef565b611ebc826127a8565b915060c086019550600181019050611ea0565b50849250505092915050565b6000611ee682612759565b808452602084019350611ef883612715565b60005b82811015611f2a57611f0e868351612049565b611f17826127b5565b9150602086019550600181019050611efb565b50849250505092915050565b6000611f4182612764565b80845260208401935083602082028501611f5a85612722565b60005b84811015611f93578383038852611f7583835161209d565b9250611f80826127c2565b9150602088019750600181019050611f5d565b508196508694505050505092915050565b611fad8161276f565b611fb68261272f565b60005b82811015611fe857611fcc8583516120e2565b611fd5826127cf565b9150602085019450600181019050611fb9565b5050505050565b611ff88161277a565b61200182612739565b60005b82811015612033576120178583516120e2565b612020826127dc565b9150602085019450600181019050612004565b5050505050565b61204381612809565b82525050565b61205281612815565b82525050565b612061816129e0565b82525050565b600061207282612790565b808452612086816020860160208601612a13565b61208f81612a46565b602085010191505092915050565b60006120a882612785565b8084526120bc816020860160208601612a13565b6120c581612a46565b602085010191505092915050565b6120dc81612857565b82525050565b6120eb81612873565b82525050565b6120fa81612893565b82525050565b6121098161289d565b82525050565b612118816128ad565b82525050565b612127816129f2565b82525050565b60006020820190506121426000830184611e16565b92915050565b60006101008201905061215e600083018b611e16565b61216b602083018a611e16565b6121786040830189612100565b6121856060830188612100565b61219260808301876120e2565b61219f60a083018661210f565b6121ac60c0830185612058565b81810360e08301526121be8184612067565b90509998505050505050505050565b600060c0820190506121e26000830189611e16565b6121ef6020830188611e16565b6121fc604083018761210f565b61220960608301866120e2565b612216608083018561210f565b81810360a08301526122288184612067565b9050979650505050505050565b60006101008201905061224b600083018b611e16565b612258602083018a611e16565b612265604083018961211e565b612272606083018861211e565b61227f60808301876120e2565b61228c60a083018661210f565b61229960c0830185612058565b81810360e08301526122ab8184612067565b90509998505050505050505050565b600060a0820190506122cf6000830188611e16565b6122dc60208301876120d3565b81810360408301526122ee8186612067565b90506122fd6060830185612100565b61230a60808301846120d3565b9695505050505050565b60006060820190506123296000830186611e16565b61233660208301856120d3565b61234360408301846120d3565b949350505050565b60006080820190506123606000830187611e16565b61236d60208301866120e2565b61237a604083018561210f565b818103606083015261238c8184612067565b905095945050505050565b60006040820190506123ac6000830185611e16565b6123b960208301846120f1565b9392505050565b600060208201905081810360008301526123da8184611e25565b905092915050565b600060208201905081810360008301526123fc8184611e80565b905092915050565b6000604082019050818103600083015261241e8185611edb565b905081810360208301526124328184611f36565b90509392505050565b6000602082019050612450600083018461203a565b92915050565b600060208201905061246b60008301846120d3565b92915050565b600060608201905061248660008301866120d3565b81810360208301526124988185612067565b90506124a7604083018461210f565b949350505050565b60006060820190506124c460008301866120d3565b6124d160208301856120d3565b6124de6040830184612058565b949350505050565b60006020820190506124fb60008301846120e2565b92915050565b600060c08201905061251660008301896120e2565b6125236020830188611e16565b6125306040830187611e16565b61253d60608301866120d3565b61254a608083018561210f565b81810360a083015261255c8184612067565b9050979650505050505050565b600060408201905061257e60008301856120e2565b61258b6020830184612058565b9392505050565b6000604051905081810181811067ffffffffffffffff821117156125b557600080fd5b8060405250919050565b600067ffffffffffffffff8211156125d657600080fd5b602082029050602081019050919050565b600067ffffffffffffffff8211156125fe57600080fd5b602082029050602081019050919050565b600067ffffffffffffffff82111561262657600080fd5b602082029050602081019050919050565b600067ffffffffffffffff82111561264e57600080fd5b602082029050602081019050919050565b600067ffffffffffffffff82111561267657600080fd5b602082029050919050565b600067ffffffffffffffff82111561269857600080fd5b602082029050919050565b600067ffffffffffffffff8211156126ba57600080fd5b601f19601f8301169050602081019050919050565b600067ffffffffffffffff8211156126e657600080fd5b601f19601f8301169050602081019050919050565b6000602082019050919050565b6000602082019050919050565b6000602082019050919050565b6000602082019050919050565b6000819050919050565b6000819050919050565b600081519050919050565b600081519050919050565b600081519050919050565b600081519050919050565b600060059050919050565b600060069050919050565b600081519050919050565b600081519050919050565b6000602082019050919050565b6000602082019050919050565b6000602082019050919050565b6000602082019050919050565b6000602082019050919050565b6000602082019050919050565b600073ffffffffffffffffffffffffffffffffffffffff82169050919050565b60008115159050919050565b60007fffffffffffffffffffffffffffffffffffffffff00000000000000000000000082169050919050565b600060058210151561284f57fe5b819050919050565b60006fffffffffffffffffffffffffffffffff82169050919050565b600073ffffffffffffffffffffffffffffffffffffffff82169050919050565b6000819050919050565b600063ffffffff82169050919050565b600067ffffffffffffffff82169050919050565b600060ff82169050919050565b600073ffffffffffffffffffffffffffffffffffffffff82169050919050565b60007fffffffffffffffffffffffffffffffffffffffff00000000000000000000000082169050919050565b6000612925826127e9565b9050919050565b6000612937826127e9565b9050919050565b6000612949826127e9565b9050919050565b600060058210151561296157600080fd5b819050919050565b60006fffffffffffffffffffffffffffffffff82169050919050565b600073ffffffffffffffffffffffffffffffffffffffff82169050919050565b6000819050919050565b600063ffffffff82169050919050565b600067ffffffffffffffff82169050919050565b600060ff82169050919050565b60006129eb82612841565b9050919050565b60006129fd826128c1565b9050919050565b82818337600083830152505050565b60005b83811015612a31578082015181840152602081019050612a16565b83811115612a40576000848401525b50505050565b6000601f19601f83011690509190505600a265627a7a72305820ce86d5f53fc14f7652db5861fb6721e6f197038d90ef732eb7dc1d3a8672e7bc6c6578706572696d656e74616cf50037608060405260405160208061563483398101806040528101908080519060200190929190505050806000806101000a81548173ffffffffffffffffffffffffffffffffffffffff021916908373ffffffffffffffffffffffffffffffffffffffff16021790555080600160006101000a81548173ffffffffffffffffffffffffffffffffffffffff021916908373ffffffffffffffffffffffffffffffffffffffff1602179055505061557d806100b76000396000f300608060405260043610610057576000357c0100000000000000000000000000000000000000000000000000000000900463ffffffff168063411b10731461005c578063d40fa70e146100b3578063f8f51ed71461010a575b600080fd5b34801561006857600080fd5b50610071610161565b604051808273ffffffffffffffffffffffffffffffffffffffff1673ffffffffffffffffffffffffffffffffffffffff16815260200191505060405180910390f35b3480156100bf57600080fd5b506100c86105b0565b604051808273ffffffffffffffffffffffffffffffffffffffff1673ffffffffffffffffffffffffffffffffffffffff16815260200191505060405180910390f35b34801561011657600080fd5b5061011f6109ff565b604051808273ffffffffffffffffffffffffffffffffffffffff1673ffffffffffffffffffffffffffffffffffffffff16815260200191505060405180910390f35b60008060008060009054906101000a900473ffffffffffffffffffffffffffffffffffffffff1673ffffffffffffffffffffffffffffffffffffffff1663879c30c66040518163ffffffff167c010000000000000000000000000000000000000000000000000000000002815260040180806020018281038252600e8152602001807f4163636f756e7453657276696365000000000000000000000000000000000000815250602001915050602060405180830381600087803b15801561022757600080fd5b505af115801561023b573d6000803e3d6000fd5b505050506040513d602081101561025157600080fd5b81019080805190602001909291905050509150600073ffffffffffffffffffffffffffffffffffffffff168273ffffffffffffffffffffffffffffffffffffffff16141515610377578192508273ffffffffffffffffffffffffffffffffffffffff166319ab453c600160009054906101000a900473ffffffffffffffffffffffffffffffffffffffff166040518263ffffffff167c0100000000000000000000000000000000000000000000000000000000028152600401808273ffffffffffffffffffffffffffffffffffffffff1673ffffffffffffffffffffffffffffffffffffffff168152602001915050600060405180830381600087803b15801561035a57600080fd5b505af115801561036e573d6000803e3d6000fd5b505050506105a8565b61037f610e4e565b604051809103906000f08015801561039b573d6000803e3d6000fd5b5092508273ffffffffffffffffffffffffffffffffffffffff166319ab453c600160009054906101000a900473ffffffffffffffffffffffffffffffffffffffff166040518263ffffffff167c0100000000000000000000000000000000000000000000000000000000028152600401808273ffffffffffffffffffffffffffffffffffffffff1673ffffffffffffffffffffffffffffffffffffffff168152602001915050600060405180830381600087803b15801561045b57600080fd5b505af115801561046f573d6000803e3d6000fd5b505050508290506000809054906101000a900473ffffffffffffffffffffffffffffffffffffffff1673ffffffffffffffffffffffffffffffffffffffff1663fcb146af826040518263ffffffff167c010000000000000000000000000000000000000000000000000000000002815260040180806020018373ffffffffffffffffffffffffffffffffffffffff1673ffffffffffffffffffffffffffffffffffffffff1681526020018281038252600e8152602001807f4163636f756e745365727669636500000000000000000000000000000000000081525060200192505050602060405180830381600087803b15801561056b57600080fd5b505af115801561057f573d6000803e3d6000fd5b505050506040513d602081101561059557600080fd5b8101908080519060200190929190505050505b829250505090565b60008060008060009054906101000a900473ffffffffffffffffffffffffffffffffffffffff1673ffffffffffffffffffffffffffffffffffffffff1663879c30c66040518163ffffffff167c010000000000000000000000000000000000000000000000000000000002815260040180806020018281038252600f8152602001807f436f6e7472616374536572766963650000000000000000000000000000000000815250602001915050602060405180830381600087803b15801561067657600080fd5b505af115801561068a573d6000803e3d6000fd5b505050506040513d60208110156106a057600080fd5b81019080805190602001909291905050509150600073ffffffffffffffffffffffffffffffffffffffff168273ffffffffffffffffffffffffffffffffffffffff161415156107c6578192508273ffffffffffffffffffffffffffffffffffffffff166319ab453c600160009054906101000a900473ffffffffffffffffffffffffffffffffffffffff166040518263ffffffff167c0100000000000000000000000000000000000000000000000000000000028152600401808273ffffffffffffffffffffffffffffffffffffffff1673ffffffffffffffffffffffffffffffffffffffff168152602001915050600060405180830381600087803b1580156107a957600080fd5b505af11580156107bd573d6000803e3d6000fd5b505050506109f7565b6107ce610e5e565b604051809103906000f0801580156107ea573d6000803e3d6000fd5b5092508273ffffffffffffffffffffffffffffffffffffffff166319ab453c600160009054906101000a900473ffffffffffffffffffffffffffffffffffffffff166040518263ffffffff167c0100000000000000000000000000000000000000000000000000000000028152600401808273ffffffffffffffffffffffffffffffffffffffff1673ffffffffffffffffffffffffffffffffffffffff168152602001915050600060405180830381600087803b1580156108aa57600080fd5b505af11580156108be573d6000803e3d6000fd5b505050508290506000809054906101000a900473ffffffffffffffffffffffffffffffffffffffff1673ffffffffffffffffffffffffffffffffffffffff1663fcb146af826040518263ffffffff167c010000000000000000000000000000000000000000000000000000000002815260040180806020018373ffffffffffffffffffffffffffffffffffffffff1673ffffffffffffffffffffffffffffffffffffffff1681526020018281038252600f8152602001807f436f6e747261637453657276696365000000000000000000000000000000000081525060200192505050602060405180830381600087803b1580156109ba57600080fd5b505af11580156109ce573d6000803e3d6000fd5b505050506040513d60208110156109e457600080fd5b8101908080519060200190929190505050505b829250505090565b60008060008060009054906101000a900473ffffffffffffffffffffffffffffffffffffffff1673ffffffffffffffffffffffffffffffffffffffff1663879c30c66040518163ffffffff167c01000000000000000000000000000000000000000000000000000000000281526004018080602001828103825260128152602001807f5472616e73616374696f6e536572766963650000000000000000000000000000815250602001915050602060405180830381600087803b158015610ac557600080fd5b505af1158015610ad9573d6000803e3d6000fd5b505050506040513d6020811015610aef57600080fd5b81019080805190602001909291905050509150600073ffffffffffffffffffffffffffffffffffffffff168273ffffffffffffffffffffffffffffffffffffffff16141515610c15578192508273ffffffffffffffffffffffffffffffffffffffff166319ab453c600160009054906101000a900473ffffffffffffffffffffffffffffffffffffffff166040518263ffffffff167c0100000000000000000000000000000000000000000000000000000000028152600401808273ffffffffffffffffffffffffffffffffffffffff1673ffffffffffffffffffffffffffffffffffffffff168152602001915050600060405180830381600087803b158015610bf857600080fd5b505af1158015610c0c573d6000803e3d6000fd5b50505050610e46565b610c1d610e6e565b604051809103906000f080158015610c39573d6000803e3d6000fd5b5092508273ffffffffffffffffffffffffffffffffffffffff166319ab453c600160009054906101000a900473ffffffffffffffffffffffffffffffffffffffff166040518263ffffffff167c0100000000000000000000000000000000000000000000000000000000028152600401808273ffffffffffffffffffffffffffffffffffffffff1673ffffffffffffffffffffffffffffffffffffffff168152602001915050600060405180830381600087803b158015610cf957600080fd5b505af1158015610d0d573d6000803e3d6000fd5b505050508290506000809054906101000a900473ffffffffffffffffffffffffffffffffffffffff1673ffffffffffffffffffffffffffffffffffffffff1663fcb146af826040518263ffffffff167c010000000000000000000000000000000000000000000000000000000002815260040180806020018373ffffffffffffffffffffffffffffffffffffffff1673ffffffffffffffffffffffffffffffffffffffff168152602001828103825260128152602001807f5472616e73616374696f6e53657276696365000000000000000000000000000081525060200192505050602060405180830381600087803b158015610e0957600080fd5b505af1158015610e1d573d6000803e3d6000fd5b505050506040513d6020811015610e3357600080fd5b8101908080519060200190929190505050505b829250505090565b6040516113f080610e7f83390190565b6040516117528061226f83390190565b604051611b91806139c1833901905600608060405260008060146101000a81548160ff0219169083151502179055506000600260146101000a81548160ff02191690831515021790555034801561004557600080fd5b50336000806101000a81548173ffffffffffffffffffffffffffffffffffffffff021916908373ffffffffffffffffffffffffffffffffffffffff16021790555061135b806100956000396000f3006080604052600436106100af576000357c0100000000000000000000000000000000000000000000000000000000900463ffffffff16806319ab453c146100b45780632843314e146100dd5780633f4ba83a1461010957806343c885ba146101205780635c975abb1461014b57806379502c55146101765780638456cb59146101a1578063c4e552a4146101b8578063f8ac93e8146101e1578063f8b2cb4f146101f8578063fbcbc0f114610235575b600080fd5b3480156100c057600080fd5b506100db60048036036100d69190810190610b56565b610276565b005b3480156100e957600080fd5b506100f261041e565b604051610100929190610f7d565b60405180910390f35b34801561011557600080fd5b5061011e6104ec565b005b34801561012c57600080fd5b5061013561057e565b6040516101429190610fb4565b60405180910390f35b34801561015757600080fd5b50610160610591565b60405161016d9190610fb4565b60405180910390f35b34801561018257600080fd5b5061018b6105a4565b6040516101989190610fcf565b60405180910390f35b3480156101ad57600080fd5b506101b66105ca565b005b3480156101c457600080fd5b506101df60048036036101da9190810190610ccc565b61065e565b005b3480156101ed57600080fd5b506101f6610710565b005b34801561020457600080fd5b5061021f600480360361021a9190810190610b56565b610712565b60405161022c919061100a565b60405180910390f35b34801561024157600080fd5b5061025c60048036036102579190810190610b56565b6107e4565b60405161026d959493929190610f23565b60405180910390f35b600081600260006101000a81548173ffffffffffffffffffffffffffffffffffffffff021916908373ffffffffffffffffffffffffffffffffffffffff160217905550600260009054906101000a900473ffffffffffffffffffffffffffffffffffffffff1673ffffffffffffffffffffffffffffffffffffffff1663879c30c66040518163ffffffff167c010000000000000000000000000000000000000000000000000000000002815260040161032e90610fea565b602060405180830381600087803b15801561034857600080fd5b505af115801561035c573d6000803e3d6000fd5b505050506040513d601f19601f820116820180604052506103809190810190610b7f565b9050600073ffffffffffffffffffffffffffffffffffffffff168173ffffffffffffffffffffffffffffffffffffffff16141515156103be57600080fd5b80600160006101000a81548173ffffffffffffffffffffffffffffffffffffffff021916908373ffffffffffffffffffffffffffffffffffffffff1602179055506001600260146101000a81548160ff0219169083151502179055505050565b606080600160009054906101000a900473ffffffffffffffffffffffffffffffffffffffff1673ffffffffffffffffffffffffffffffffffffffff16632843314e6040518163ffffffff167c0100000000000000000000000000000000000000000000000000000000028152600401600060405180830381600087803b1580156104a757600080fd5b505af11580156104bb573d6000803e3d6000fd5b505050506040513d6000823e3d601f19601f820116820180604052506104e49190810190610c37565b915091509091565b6000809054906101000a900473ffffffffffffffffffffffffffffffffffffffff1673ffffffffffffffffffffffffffffffffffffffff163373ffffffffffffffffffffffffffffffffffffffff1614151561054757600080fd5b600060149054906101000a900460ff16151561056257600080fd5b60008060146101000a81548160ff021916908315150217905550565b600260149054906101000a900460ff1681565b600060149054906101000a900460ff1681565b600260009054906101000a900473ffffffffffffffffffffffffffffffffffffffff1681565b6000809054906101000a900473ffffffffffffffffffffffffffffffffffffffff1673ffffffffffffffffffffffffffffffffffffffff163373ffffffffffffffffffffffffffffffffffffffff1614151561062557600080fd5b600060149054906101000a900460ff1615151561064157600080fd5b6001600060146101000a81548160ff021916908315150217905550565b600160009054906101000a900473ffffffffffffffffffffffffffffffffffffffff1673ffffffffffffffffffffffffffffffffffffffff1663c4e552a48484846040518463ffffffff167c01000000000000000000000000000000000000000000000000000000000281526004016106d993929190611025565b600060405180830381600087803b1580156106f357600080fd5b505af1158015610707573d6000803e3d6000fd5b50505050505050565b565b6000600160009054906101000a900473ffffffffffffffffffffffffffffffffffffffff1673ffffffffffffffffffffffffffffffffffffffff1663f8b2cb4f836040518263ffffffff167c010000000000000000000000000000000000000000000000000000000002815260040161078b9190610f08565b602060405180830381600087803b1580156107a557600080fd5b505af11580156107b9573d6000803e3d6000fd5b505050506040513d601f19601f820116820180604052506107dd9190810190610ca3565b9050919050565b6000806060600080600160009054906101000a900473ffffffffffffffffffffffffffffffffffffffff1673ffffffffffffffffffffffffffffffffffffffff1663fbcbc0f1876040518263ffffffff167c01000000000000000000000000000000000000000000000000000000000281526004016108639190610f08565b600060405180830381600087803b15801561087d57600080fd5b505af1158015610891573d6000803e3d6000fd5b505050506040513d6000823e3d601f19601f820116820180604052506108ba9190810190610ba8565b9450945094509450945091939590929450565b60006108d98235611230565b905092915050565b60006108ed8251611230565b905092915050565b600082601f830112151561090857600080fd5b815161091b61091682611090565b611063565b9150818183526020840193506020810190508385602084028201111561094057600080fd5b60005b83811015610970578161095688826109f0565b845260208401935060208301925050600181019050610943565b5050505092915050565b600082601f830112151561098d57600080fd5b81516109a061099b826110b8565b611063565b9150818183526020840193506020810190508360005b838110156109e657815186016109cc8882610a04565b8452602084019350602083019250506001810190506109b6565b5050505092915050565b60006109fc8251611250565b905092915050565b600082601f8301121515610a1757600080fd5b8151610a2a610a25826110e0565b611063565b91508082526020830160208301858383011115610a4657600080fd5b610a518382846112dd565b50505092915050565b600082601f8301121515610a6d57600080fd5b8135610a80610a7b8261110c565b611063565b91508082526020830160208301858383011115610a9c57600080fd5b610aa78382846112ce565b50505092915050565b600082601f8301121515610ac357600080fd5b8151610ad6610ad18261110c565b611063565b91508082526020830160208301858383011115610af257600080fd5b610afd8382846112dd565b50505092915050565b6000610b12823561127c565b905092915050565b6000610b26825161127c565b905092915050565b6000610b3a8251611298565b905092915050565b6000610b4e82356112a8565b905092915050565b600060208284031215610b6857600080fd5b6000610b76848285016108cd565b91505092915050565b600060208284031215610b9157600080fd5b6000610b9f848285016108e1565b91505092915050565b600080600080600060a08688031215610bc057600080fd5b6000610bce888289016108e1565b9550506020610bdf88828901610b1a565b945050604086015167ffffffffffffffff811115610bfc57600080fd5b610c0888828901610ab0565b9350506060610c1988828901610b2e565b9250506080610c2a88828901610b1a565b9150509295509295909350565b60008060408385031215610c4a57600080fd5b600083015167ffffffffffffffff811115610c6457600080fd5b610c70858286016108f5565b925050602083015167ffffffffffffffff811115610c8d57600080fd5b610c998582860161097a565b9150509250929050565b600060208284031215610cb557600080fd5b6000610cc384828501610b1a565b91505092915050565b600080600060608486031215610ce157600080fd5b6000610cef86828701610b06565b935050602084013567ffffffffffffffff811115610d0c57600080fd5b610d1886828701610a5a565b9250506040610d2986828701610b42565b9150509250925092565b610d3c81611198565b82525050565b6000610d4d82611152565b808452602084019350610d5f83611138565b60005b82811015610d9157610d75868351610e1a565b610d7e8261117e565b9150602086019550600181019050610d62565b50849250505092915050565b6000610da88261115d565b80845260208401935083602082028501610dc185611145565b60005b84811015610dfa578383038852610ddc838351610e6e565b9250610de78261118b565b9150602088019750600181019050610dc4565b508196508694505050505092915050565b610e14816111b8565b82525050565b610e23816111c4565b82525050565b610e32816112bc565b82525050565b6000610e4382611173565b808452610e578160208601602086016112dd565b610e6081611310565b602085010191505092915050565b6000610e7982611168565b808452610e8d8160208601602086016112dd565b610e9681611310565b602085010191505092915050565b6000600f82527f437573746f6d65724163636f756e7400000000000000000000000000000000006020830152604082019050919050565b610ee4816111f0565b82525050565b610ef38161120c565b82525050565b610f028161121c565b82525050565b6000602082019050610f1d6000830184610d33565b92915050565b600060a082019050610f386000830188610d33565b610f456020830187610edb565b8181036040830152610f578186610e38565b9050610f666060830185610eea565b610f736080830184610edb565b9695505050505050565b60006040820190508181036000830152610f978185610d42565b90508181036020830152610fab8184610d9d565b90509392505050565b6000602082019050610fc96000830184610e0b565b92915050565b6000602082019050610fe46000830184610e29565b92915050565b6000602082019050818103600083015261100381610ea4565b9050919050565b600060208201905061101f6000830184610edb565b92915050565b600060608201905061103a6000830186610edb565b818103602083015261104c8185610e38565b905061105b6040830184610ef9565b949350505050565b6000604051905081810181811067ffffffffffffffff8211171561108657600080fd5b8060405250919050565b600067ffffffffffffffff8211156110a757600080fd5b602082029050602081019050919050565b600067ffffffffffffffff8211156110cf57600080fd5b602082029050602081019050919050565b600067ffffffffffffffff8211156110f757600080fd5b601f19601f8301169050602081019050919050565b600067ffffffffffffffff82111561112357600080fd5b601f19601f8301169050602081019050919050565b6000602082019050919050565b6000602082019050919050565b600081519050919050565b600081519050919050565b600081519050919050565b600081519050919050565b6000602082019050919050565b6000602082019050919050565b600073ffffffffffffffffffffffffffffffffffffffff82169050919050565b60008115159050919050565b60007fffffffffffffffffffffffffffffffffffffffff00000000000000000000000082169050919050565b60006fffffffffffffffffffffffffffffffff82169050919050565b600063ffffffff82169050919050565b600067ffffffffffffffff82169050919050565b600073ffffffffffffffffffffffffffffffffffffffff82169050919050565b60007fffffffffffffffffffffffffffffffffffffffff00000000000000000000000082169050919050565b60006fffffffffffffffffffffffffffffffff82169050919050565b600063ffffffff82169050919050565b600067ffffffffffffffff82169050919050565b60006112c782611198565b9050919050565b82818337600083830152505050565b60005b838110156112fb5780820151818401526020810190506112e0565b8381111561130a576000848401525b50505050565b6000601f19601f83011690509190505600a265627a7a72305820f9369e71db4b4b8305bbe9a1cef2233f7d680c73cc10aeded87bee69d61b07656c6578706572696d656e74616cf5003760806040526000600160146101000a81548160ff0219169083151502179055506000600260146101000a81548160ff02191690831515021790555034801561004657600080fd5b5033600160006101000a81548173ffffffffffffffffffffffffffffffffffffffff021916908373ffffffffffffffffffffffffffffffffffffffff1602179055506116bb806100976000396000f3006080604052600436106100af576000357c0100000000000000000000000000000000000000000000000000000000900463ffffffff16806319ab453c146100b45780633f4ba83a146100f757806343c885ba1461010e578063595f78171461013d5780635c975abb146102e857806379502c55146103175780638456cb591461036e5780639d30fb2514610385578063a5f2b34d1461048f578063ceda56911461056f578063f8ac93e8146105bf575b600080fd5b3480156100c057600080fd5b506100f5600480360381019080803573ffffffffffffffffffffffffffffffffffffffff1690602001909291905050506105d6565b005b34801561010357600080fd5b5061010c6107b2565b005b34801561011a57600080fd5b50610123610846565b604051808215151515815260200191505060405180910390f35b34801561014957600080fd5b5061017e600480360381019080803573ffffffffffffffffffffffffffffffffffffffff169060200190929190505050610859565b604051808973ffffffffffffffffffffffffffffffffffffffff1673ffffffffffffffffffffffffffffffffffffffff1681526020018873ffffffffffffffffffffffffffffffffffffffff1673ffffffffffffffffffffffffffffffffffffffff1681526020018763ffffffff1663ffffffff1681526020018663ffffffff1663ffffffff1681526020018573ffffffffffffffffffffffffffffffffffffffff1673ffffffffffffffffffffffffffffffffffffffff1681526020018467ffffffffffffffff1667ffffffffffffffff16815260200183600481111561026257fe5b60ff16815260200180602001828103825283818151815260200191508051906020019080838360005b838110156102a657808201518184015260208101905061028b565b50505050905090810190601f1680156102d35780820380516001836020036101000a031916815260200191505b50995050505050505050505060405180910390f35b3480156102f457600080fd5b506102fd610a16565b604051808215151515815260200191505060405180910390f35b34801561032357600080fd5b5061032c610a29565b604051808273ffffffffffffffffffffffffffffffffffffffff1673ffffffffffffffffffffffffffffffffffffffff16815260200191505060405180910390f35b34801561037a57600080fd5b50610383610a4e565b005b34801561039157600080fd5b5061048d600480360381019080803573ffffffffffffffffffffffffffffffffffffffff169060200190929190803573ffffffffffffffffffffffffffffffffffffffff169060200190929190803563ffffffff169060200190929190803563ffffffff169060200190929190803573ffffffffffffffffffffffffffffffffffffffff169060200190929190803567ffffffffffffffff169060200190929190803560ff169060200190929190803590602001908201803590602001908080601f0160208091040260200160405190810160405280939291908181526020018383808284378201915050505050509192919290505050610ae2565b005b34801561049b57600080fd5b506104f560048036038101908080356fffffffffffffffffffffffffffffffff16906020019092919080356fffffffffffffffffffffffffffffffff169060200190929190803560ff169060200190929190505050610cf0565b60405180806020018281038252838181518152602001915080516000925b8184101561055e57828490602001906020020151600660200280838360005b8381101561054d578082015181840152602081019050610532565b505050509050019260010192610513565b925050509250505060405180910390f35b34801561057b57600080fd5b506105bd600480360381019080803573ffffffffffffffffffffffffffffffffffffffff169060200190929190803560ff169060200190929190505050611365565b005b3480156105cb57600080fd5b506105d461166a565b005b6000816000806101000a81548173ffffffffffffffffffffffffffffffffffffffff021916908373ffffffffffffffffffffffffffffffffffffffff1602179055506000809054906101000a900473ffffffffffffffffffffffffffffffffffffffff1673ffffffffffffffffffffffffffffffffffffffff1663879c30c66040518163ffffffff167c01000000000000000000000000000000000000000000000000000000000281526004018080602001828103825260108152602001807f437573746f6d6572436f6e747261637400000000000000000000000000000000815250602001915050602060405180830381600087803b1580156106d957600080fd5b505af11580156106ed573d6000803e3d6000fd5b505050506040513d602081101561070357600080fd5b81019080805190602001909291905050509050600073ffffffffffffffffffffffffffffffffffffffff168173ffffffffffffffffffffffffffffffffffffffff161415151561075257600080fd5b80600260006101000a81548173ffffffffffffffffffffffffffffffffffffffff021916908373ffffffffffffffffffffffffffffffffffffffff1602179055506001600260146101000a81548160ff0219169083151502179055505050565b600160009054906101000a900473ffffffffffffffffffffffffffffffffffffffff1673ffffffffffffffffffffffffffffffffffffffff163373ffffffffffffffffffffffffffffffffffffffff1614151561080e57600080fd5b600160149054906101000a900460ff16151561082957600080fd5b6000600160146101000a81548160ff021916908315150217905550565b600260149054906101000a900460ff1681565b60008060008060008060006060600260009054906101000a900473ffffffffffffffffffffffffffffffffffffffff1673ffffffffffffffffffffffffffffffffffffffff166317e5f2508a6040518263ffffffff167c0100000000000000000000000000000000000000000000000000000000028152600401808273ffffffffffffffffffffffffffffffffffffffff1673ffffffffffffffffffffffffffffffffffffffff168152602001915050600060405180830381600087803b15801561092357600080fd5b505af1158015610937573d6000803e3d6000fd5b505050506040513d6000823e3d601f19601f8201168201806040525061010081101561096257600080fd5b810190808051906020019092919080519060200190929190805190602001909291908051906020019092919080519060200190929190805190602001909291908051906020019092919080516401000000008111156109c057600080fd5b828101905060208101848111156109d657600080fd5b81518560018202830111640100000000821117156109f357600080fd5b505092919050505097509750975097509750975097509750919395975091939597565b600160149054906101000a900460ff1681565b6000809054906101000a900473ffffffffffffffffffffffffffffffffffffffff1681565b600160009054906101000a900473ffffffffffffffffffffffffffffffffffffffff1673ffffffffffffffffffffffffffffffffffffffff163373ffffffffffffffffffffffffffffffffffffffff16141515610aaa57600080fd5b600160149054906101000a900460ff16151515610ac657600080fd5b60018060146101000a81548160ff021916908315150217905550565b600260009054906101000a900473ffffffffffffffffffffffffffffffffffffffff1673ffffffffffffffffffffffffffffffffffffffff1663a8eae47889898989898989896040518963ffffffff167c0100000000000000000000000000000000000000000000000000000000028152600401808973ffffffffffffffffffffffffffffffffffffffff1673ffffffffffffffffffffffffffffffffffffffff1681526020018873ffffffffffffffffffffffffffffffffffffffff1673ffffffffffffffffffffffffffffffffffffffff1681526020018763ffffffff1663ffffffff1681526020018663ffffffff1663ffffffff1681526020018573ffffffffffffffffffffffffffffffffffffffff1673ffffffffffffffffffffffffffffffffffffffff1681526020018467ffffffffffffffff1667ffffffffffffffff168152602001836004811115610c3757fe5b60ff16815260200180602001828103825283818151815260200191508051906020019080838360005b83811015610c7b578082015181840152602081019050610c60565b50505050905090810190601f168015610ca85780820380516001836020036101000a031916815260200191505b509950505050505050505050600060405180830381600087803b158015610cce57600080fd5b505af1158015610ce2573d6000803e3d6000fd5b505050505050505050505050565b6060600060606000806000806000806000600260009054906101000a900473ffffffffffffffffffffffffffffffffffffffff1673ffffffffffffffffffffffffffffffffffffffff16637bca1056336000809054906101000a900473ffffffffffffffffffffffffffffffffffffffff1673ffffffffffffffffffffffffffffffffffffffff166324d7806c336040518263ffffffff167c0100000000000000000000000000000000000000000000000000000000028152600401808273ffffffffffffffffffffffffffffffffffffffff1673ffffffffffffffffffffffffffffffffffffffff168152602001915050602060405180830381600087803b158015610dfc57600080fd5b505af1158015610e10573d6000803e3d6000fd5b505050506040513d6020811015610e2657600080fd5b81019080805190602001909291905050508e6040518463ffffffff167c0100000000000000000000000000000000000000000000000000000000028152600401808473ffffffffffffffffffffffffffffffffffffffff1673ffffffffffffffffffffffffffffffffffffffff16815260200183151515158152602001826004811115610eaf57fe5b60ff1681526020019350505050602060405180830381600087803b158015610ed657600080fd5b505af1158015610eea573d6000803e3d6000fd5b505050506040513d6020811015610f0057600080fd5b810190808051906020019092919050505098508b6fffffffffffffffffffffffffffffffff16604051908082528060200260200182016040528015610f5f57816020015b610f4c61166c565b815260200190600190039081610f445790505b509750600096505b8b6fffffffffffffffffffffffffffffffff1687101561135257600260009054906101000a900473ffffffffffffffffffffffffffffffffffffffff1673ffffffffffffffffffffffffffffffffffffffff1663016a8598338f6000809054906101000a900473ffffffffffffffffffffffffffffffffffffffff1673ffffffffffffffffffffffffffffffffffffffff166324d7806c336040518263ffffffff167c0100000000000000000000000000000000000000000000000000000000028152600401808273ffffffffffffffffffffffffffffffffffffffff1673ffffffffffffffffffffffffffffffffffffffff168152602001915050602060405180830381600087803b15801561107d57600080fd5b505af1158015611091573d6000803e3d6000fd5b505050506040513d60208110156110a757600080fd5b81019080805190602001909291905050508f6040518563ffffffff167c0100000000000000000000000000000000000000000000000000000000028152600401808573ffffffffffffffffffffffffffffffffffffffff1673ffffffffffffffffffffffffffffffffffffffff168152602001846fffffffffffffffffffffffffffffffff166fffffffffffffffffffffffffffffffff1681526020018315151515815260200182600481111561115a57fe5b60ff16815260200194505050505060c060405180830381600087803b15801561118257600080fd5b505af1158015611196573d6000803e3d6000fd5b505050506040513d60c08110156111ac57600080fd5b8101908080519060200190929190805190602001909291908051906020019092919080519060200190929190805190602001909291908051906020019092919050505095509550955095509550955060c0604051908101604052808773ffffffffffffffffffffffffffffffffffffffff1673ffffffffffffffffffffffffffffffffffffffff1681526020018673ffffffffffffffffffffffffffffffffffffffff1673ffffffffffffffffffffffffffffffffffffffff1681526020018573ffffffffffffffffffffffffffffffffffffffff1673ffffffffffffffffffffffffffffffffffffffff1681526020018467ffffffffffffffff1673ffffffffffffffffffffffffffffffffffffffff1681526020018363ffffffff1673ffffffffffffffffffffffffffffffffffffffff1673ffffffffffffffffffffffffffffffffffffffff1681526020018a6fffffffffffffffffffffffffffffffff1673ffffffffffffffffffffffffffffffffffffffff16815250888881518110151561133557fe5b90602001906020020181905250809c508680600101975050610f67565b8799505050505050505050509392505050565b60008060008060008060006060600260009054906101000a900473ffffffffffffffffffffffffffffffffffffffff1673ffffffffffffffffffffffffffffffffffffffff166317e5f2508b6040518263ffffffff167c0100000000000000000000000000000000000000000000000000000000028152600401808273ffffffffffffffffffffffffffffffffffffffff1673ffffffffffffffffffffffffffffffffffffffff168152602001915050600060405180830381600087803b15801561142f57600080fd5b505af1158015611443573d6000803e3d6000fd5b505050506040513d6000823e3d601f19601f8201168201806040525061010081101561146e57600080fd5b810190808051906020019092919080519060200190929190805190602001909291908051906020019092919080519060200190929190805190602001909291908051906020019092919080516401000000008111156114cc57600080fd5b828101905060208101848111156114e257600080fd5b81518560018202830111640100000000821117156114ff57600080fd5b5050929190505050975097509750975097509750975097508673ffffffffffffffffffffffffffffffffffffffff163273ffffffffffffffffffffffffffffffffffffffff1614801561156857506001600481111561155a57fe5b82600481111561156657fe5b145b151561157357600080fd5b600260009054906101000a900473ffffffffffffffffffffffffffffffffffffffff1673ffffffffffffffffffffffffffffffffffffffff1663e0af172d8b8b6040518363ffffffff167c0100000000000000000000000000000000000000000000000000000000028152600401808373ffffffffffffffffffffffffffffffffffffffff1673ffffffffffffffffffffffffffffffffffffffff16815260200182600481111561162057fe5b60ff16815260200192505050600060405180830381600087803b15801561164657600080fd5b505af115801561165a573d6000803e3d6000fd5b5050505050505050505050505050565b565b60c0604051908101604052806006906020820280388339808201915050905050905600a165627a7a723058209e7069b22e875aab5643b0205c2e856c00533f6fc3b9721b631de267e4586418002960806040526000600160146101000a81548160ff0219169083151502179055506000600360146101000a81548160ff02191690831515021790555034801561004657600080fd5b5033600160006101000a81548173ffffffffffffffffffffffffffffffffffffffff021916908373ffffffffffffffffffffffffffffffffffffffff160217905550611afa806100976000396000f3006080604052600436106100af576000357c0100000000000000000000000000000000000000000000000000000000900463ffffffff16806319ab453c146100b45780633f4ba83a146100f757806343c885ba1461010e57806358afdd051461013d5780635c975abb146102d857806360e768e31461030757806379502c551461040b5780638456cb59146104625780639de0a3b014610479578063b1ff6bb21461056c578063f8ac93e81461065d575b600080fd5b3480156100c057600080fd5b506100f5600480360381019080803573ffffffffffffffffffffffffffffffffffffffff169060200190929190505050610674565b005b34801561010357600080fd5b5061010c6109cd565b005b34801561011a57600080fd5b50610123610a61565b604051808215151515815260200191505060405180910390f35b34801561014957600080fd5b5061017e600480360381019080803573ffffffffffffffffffffffffffffffffffffffff169060200190929190505050610a74565b604051808773ffffffffffffffffffffffffffffffffffffffff1673ffffffffffffffffffffffffffffffffffffffff1681526020018673ffffffffffffffffffffffffffffffffffffffff1673ffffffffffffffffffffffffffffffffffffffff1681526020018573ffffffffffffffffffffffffffffffffffffffff1673ffffffffffffffffffffffffffffffffffffffff168152602001846fffffffffffffffffffffffffffffffff166fffffffffffffffffffffffffffffffff1681526020018367ffffffffffffffff1667ffffffffffffffff16815260200180602001828103825283818151815260200191508051906020019080838360005b8381101561029857808201518184015260208101905061027d565b50505050905090810190601f1680156102c55780820380516001836020036101000a031916815260200191505b5097505050505050505060405180910390f35b3480156102e457600080fd5b506102ed610c13565b604051808215151515815260200191505060405180910390f35b34801561031357600080fd5b506103c2600480360381019080803573ffffffffffffffffffffffffffffffffffffffff169060200190929190803573ffffffffffffffffffffffffffffffffffffffff169060200190929190803567ffffffffffffffff169060200190929190803590602001908201803590602001908080601f0160208091040260200160405190810160405280939291908181526020018383808284378201915050505050509192919290505050610c26565b604051808373ffffffffffffffffffffffffffffffffffffffff1673ffffffffffffffffffffffffffffffffffffffff1681526020018281526020019250505060405180910390f35b34801561041757600080fd5b50610420611016565b604051808273ffffffffffffffffffffffffffffffffffffffff1673ffffffffffffffffffffffffffffffffffffffff16815260200191505060405180910390f35b34801561046e57600080fd5b5061047761103b565b005b34801561048557600080fd5b506104f2600480360381019080803573ffffffffffffffffffffffffffffffffffffffff16906020019092919080356fffffffffffffffffffffffffffffffff16906020019092919080356fffffffffffffffffffffffffffffffff1690602001909291905050506110cf565b60405180806020018281038252838181518152602001915080516000925b8184101561055b57828490602001906020020151600560200280838360005b8381101561054a57808201518184015260208101905061052f565b505050509050019260010192610510565b925050509250505060405180910390f35b34801561057857600080fd5b5061065b600480360381019080803573ffffffffffffffffffffffffffffffffffffffff169060200190929190803573ffffffffffffffffffffffffffffffffffffffff169060200190929190803567ffffffffffffffff169060200190929190803573ffffffffffffffffffffffffffffffffffffffff169060200190929190803567ffffffffffffffff169060200190929190803590602001908201803590602001908080601f0160208091040260200160405190810160405280939291908181526020018383808284378201915050505050509192919290505050611522565b005b34801561066957600080fd5b50610672611aa9565b005b600080826000806101000a81548173ffffffffffffffffffffffffffffffffffffffff021916908373ffffffffffffffffffffffffffffffffffffffff1602179055506000809054906101000a900473ffffffffffffffffffffffffffffffffffffffff1673ffffffffffffffffffffffffffffffffffffffff1663879c30c66040518163ffffffff167c01000000000000000000000000000000000000000000000000000000000281526004018080602001828103825260138152602001807f437573746f6d65725472616e73616374696f6e00000000000000000000000000815250602001915050602060405180830381600087803b15801561077857600080fd5b505af115801561078c573d6000803e3d6000fd5b505050506040513d60208110156107a257600080fd5b81019080805190602001909291905050509150600073ffffffffffffffffffffffffffffffffffffffff168273ffffffffffffffffffffffffffffffffffffffff16141515156107f157600080fd5b81600260006101000a81548173ffffffffffffffffffffffffffffffffffffffff021916908373ffffffffffffffffffffffffffffffffffffffff1602179055506000809054906101000a900473ffffffffffffffffffffffffffffffffffffffff1673ffffffffffffffffffffffffffffffffffffffff1663879c30c66040518163ffffffff167c010000000000000000000000000000000000000000000000000000000002815260040180806020018281038252600e8152602001807f4163636f756e7453657276696365000000000000000000000000000000000000815250602001915050602060405180830381600087803b1580156108f357600080fd5b505af1158015610907573d6000803e3d6000fd5b505050506040513d602081101561091d57600080fd5b81019080805190602001909291905050509050600073ffffffffffffffffffffffffffffffffffffffff168173ffffffffffffffffffffffffffffffffffffffff161415151561096c57600080fd5b80600360006101000a81548173ffffffffffffffffffffffffffffffffffffffff021916908373ffffffffffffffffffffffffffffffffffffffff1602179055506001600360146101000a81548160ff021916908315150217905550505050565b600160009054906101000a900473ffffffffffffffffffffffffffffffffffffffff1673ffffffffffffffffffffffffffffffffffffffff163373ffffffffffffffffffffffffffffffffffffffff16141515610a2957600080fd5b600160149054906101000a900460ff161515610a4457600080fd5b6000600160146101000a81548160ff021916908315150217905550565b600360149054906101000a900460ff1681565b60008060008060006060600260009054906101000a900473ffffffffffffffffffffffffffffffffffffffff1673ffffffffffffffffffffffffffffffffffffffff166365391c20886040518263ffffffff167c0100000000000000000000000000000000000000000000000000000000028152600401808273ffffffffffffffffffffffffffffffffffffffff1673ffffffffffffffffffffffffffffffffffffffff168152602001915050600060405180830381600087803b158015610b3b57600080fd5b505af1158015610b4f573d6000803e3d6000fd5b505050506040513d6000823e3d601f19601f8201168201806040525060c0811015610b7957600080fd5b8101908080519060200190929190805190602001909291908051906020019092919080519060200190929190805190602001909291908051640100000000811115610bc357600080fd5b82810190506020810184811115610bd957600080fd5b8151856001820283011164010000000082111715610bf657600080fd5b505092919050505095509550955095509550955091939550919395565b600160149054906101000a900460ff1681565b60008060008060009054906101000a900473ffffffffffffffffffffffffffffffffffffffff1673ffffffffffffffffffffffffffffffffffffffff166324d7806c336040518263ffffffff167c0100000000000000000000000000000000000000000000000000000000028152600401808273ffffffffffffffffffffffffffffffffffffffff1673ffffffffffffffffffffffffffffffffffffffff168152602001915050602060405180830381600087803b158015610ce757600080fd5b505af1158015610cfb573d6000803e3d6000fd5b505050506040513d6020811015610d1157600080fd5b81019080805190602001909291905050501515610d2d57600080fd5b429050600260009054906101000a900473ffffffffffffffffffffffffffffffffffffffff1673ffffffffffffffffffffffffffffffffffffffff1663ecfa4ba1600089888a868a6040518763ffffffff167c0100000000000000000000000000000000000000000000000000000000028152600401808773ffffffffffffffffffffffffffffffffffffffff1673ffffffffffffffffffffffffffffffffffffffff1681526020018673ffffffffffffffffffffffffffffffffffffffff1673ffffffffffffffffffffffffffffffffffffffff1681526020018567ffffffffffffffff1667ffffffffffffffff1681526020018473ffffffffffffffffffffffffffffffffffffffff1673ffffffffffffffffffffffffffffffffffffffff1681526020018367ffffffffffffffff1667ffffffffffffffff16815260200180602001828103825283818151815260200191508051906020019080838360005b83811015610eaa578082015181840152602081019050610e8f565b50505050905090810190601f168015610ed75780820380516001836020036101000a031916815260200191505b50975050505050505050600060405180830381600087803b158015610efb57600080fd5b505af1158015610f0f573d6000803e3d6000fd5b50505050600360009054906101000a900473ffffffffffffffffffffffffffffffffffffffff1673ffffffffffffffffffffffffffffffffffffffff16637907f13d88876040518363ffffffff167c0100000000000000000000000000000000000000000000000000000000028152600401808373ffffffffffffffffffffffffffffffffffffffff1673ffffffffffffffffffffffffffffffffffffffff1681526020018267ffffffffffffffff166fffffffffffffffffffffffffffffffff16815260200192505050600060405180830381600087803b158015610ff457600080fd5b505af1158015611008573d6000803e3d6000fd5b505050505094509492505050565b6000809054906101000a900473ffffffffffffffffffffffffffffffffffffffff1681565b600160009054906101000a900473ffffffffffffffffffffffffffffffffffffffff1673ffffffffffffffffffffffffffffffffffffffff163373ffffffffffffffffffffffffffffffffffffffff1614151561109757600080fd5b600160149054906101000a900460ff161515156110b357600080fd5b60018060146101000a81548160ff021916908315150217905550565b6060806000806000806000806000808a6fffffffffffffffffffffffffffffffff1660405190808252806020026020018201604052801561112a57816020015b611117611aab565b81526020019060019003908161110f5790505b509850600097505b8a6fffffffffffffffffffffffffffffffff1688101561150f57600260009054906101000a900473ffffffffffffffffffffffffffffffffffffffff1673ffffffffffffffffffffffffffffffffffffffff16631f9d762f328f8f6000809054906101000a900473ffffffffffffffffffffffffffffffffffffffff1673ffffffffffffffffffffffffffffffffffffffff166324d7806c326040518263ffffffff167c0100000000000000000000000000000000000000000000000000000000028152600401808273ffffffffffffffffffffffffffffffffffffffff1673ffffffffffffffffffffffffffffffffffffffff168152602001915050602060405180830381600087803b15801561124957600080fd5b505af115801561125d573d6000803e3d6000fd5b505050506040513d602081101561127357600080fd5b81019080805190602001909291905050506040518563ffffffff167c0100000000000000000000000000000000000000000000000000000000028152600401808573ffffffffffffffffffffffffffffffffffffffff1673ffffffffffffffffffffffffffffffffffffffff1681526020018473ffffffffffffffffffffffffffffffffffffffff1673ffffffffffffffffffffffffffffffffffffffff168152602001836fffffffffffffffffffffffffffffffff166fffffffffffffffffffffffffffffffff1681526020018215151515815260200194505050505060e060405180830381600087803b15801561136b57600080fd5b505af115801561137f573d6000803e3d6000fd5b505050506040513d60e081101561139557600080fd5b8101908080519060200190929190805190602001909291908051906020019092919080519060200190929190805190602001909291908051906020019092919080519060200190929190505050965096509650965096509650965060a0604051908101604052808873ffffffffffffffffffffffffffffffffffffffff1673ffffffffffffffffffffffffffffffffffffffff1681526020018773ffffffffffffffffffffffffffffffffffffffff1673ffffffffffffffffffffffffffffffffffffffff1681526020018673ffffffffffffffffffffffffffffffffffffffff1673ffffffffffffffffffffffffffffffffffffffff168152602001856fffffffffffffffffffffffffffffffff1673ffffffffffffffffffffffffffffffffffffffff1681526020018467ffffffffffffffff1673ffffffffffffffffffffffffffffffffffffffff1681525089898151811015156114f257fe5b90602001906020020181905250819b508780600101985050611132565b8899505050505050505050509392505050565b600073ffffffffffffffffffffffffffffffffffffffff168673ffffffffffffffffffffffffffffffffffffffff161415801561158b57508473ffffffffffffffffffffffffffffffffffffffff168673ffffffffffffffffffffffffffffffffffffffff1614155b80156115a1575060008467ffffffffffffffff16115b15156115ac57600080fd5b8367ffffffffffffffff16600360009054906101000a900473ffffffffffffffffffffffffffffffffffffffff1673ffffffffffffffffffffffffffffffffffffffff1663f8b2cb4f886040518263ffffffff167c0100000000000000000000000000000000000000000000000000000000028152600401808273ffffffffffffffffffffffffffffffffffffffff1673ffffffffffffffffffffffffffffffffffffffff168152602001915050602060405180830381600087803b15801561167457600080fd5b505af1158015611688573d6000803e3d6000fd5b505050506040513d602081101561169e57600080fd5b81019080805190602001909291905050506fffffffffffffffffffffffffffffffff161115156116ca57fe5b600260009054906101000a900473ffffffffffffffffffffffffffffffffffffffff1673ffffffffffffffffffffffffffffffffffffffff1663ecfa4ba13387878787876040518763ffffffff167c0100000000000000000000000000000000000000000000000000000000028152600401808773ffffffffffffffffffffffffffffffffffffffff1673ffffffffffffffffffffffffffffffffffffffff1681526020018673ffffffffffffffffffffffffffffffffffffffff1673ffffffffffffffffffffffffffffffffffffffff1681526020018567ffffffffffffffff1667ffffffffffffffff1681526020018473ffffffffffffffffffffffffffffffffffffffff1673ffffffffffffffffffffffffffffffffffffffff1681526020018367ffffffffffffffff1667ffffffffffffffff16815260200180602001828103825283818151815260200191508051906020019080838360005b83811015611843578082015181840152602081019050611828565b50505050905090810190601f1680156118705780820380516001836020036101000a031916815260200191505b50975050505050505050600060405180830381600087803b15801561189457600080fd5b505af11580156118a8573d6000803e3d6000fd5b50505050600360009054906101000a900473ffffffffffffffffffffffffffffffffffffffff1673ffffffffffffffffffffffffffffffffffffffff16637907f13d87866000036040518363ffffffff167c0100000000000000000000000000000000000000000000000000000000028152600401808373ffffffffffffffffffffffffffffffffffffffff1673ffffffffffffffffffffffffffffffffffffffff1681526020018267ffffffffffffffff166fffffffffffffffffffffffffffffffff16815260200192505050600060405180830381600087803b15801561199057600080fd5b505af11580156119a4573d6000803e3d6000fd5b50505050600360009054906101000a900473ffffffffffffffffffffffffffffffffffffffff1673ffffffffffffffffffffffffffffffffffffffff16637907f13d86866040518363ffffffff167c0100000000000000000000000000000000000000000000000000000000028152600401808373ffffffffffffffffffffffffffffffffffffffff1673ffffffffffffffffffffffffffffffffffffffff1681526020018267ffffffffffffffff166fffffffffffffffffffffffffffffffff16815260200192505050600060405180830381600087803b158015611a8957600080fd5b505af1158015611a9d573d6000803e3d6000fd5b50505050505050505050565b565b60a0604051908101604052806005906020820280388339808201915050905050905600a165627a7a7230582033d5d38546e5daa913a41e8440737473a3381034a6453e385438b21009e21dee0029a165627a7a72305820c70b912e9850c1010692cba8033b59cf7c420e775011ac126a41156a0d025d210029",
  "source": "pragma solidity ^0.4.2;\r\npragma experimental ABIEncoderV2;\r\n\r\nimport \"../lifecycle/SmartContractFactory.sol\";\r\nimport \"../service/AccountService.sol\";\r\nimport \"../service/ContractService.sol\";\r\nimport \"../service/TransactionService.sol\";\r\nimport \"../lifecycle/Upgradeable.sol\";\r\nimport \"../data/CustomerContract.sol\";\r\ncontract TTVIP is Upgradeable{\r\n    SmartContractFactory factory;\r\n    AccountService accountService;\r\n    ContractService contractService;\r\n    TransactionService transactionService;\r\n\r\n    function TTVIP(address config_addr)public payable {\r\n        factory=new SmartContractFactory(config_addr);\r\n        refresh();\r\n    }\r\n\r\n    //\r\n    event Signed(address indexed firstParty, address indexed secondParty, uint indexed txHash);\r\n\r\n    //\r\n    event Transformed(address indexed from, address indexed to, uint indexed txHash);\r\n\r\n    //\r\n    function signContract(address secondParty,uint8 shareProfit,uint8 expireYear,uint160 txHash,CustomerContract.ContractState state,string remark) public{\r\n        contractService.signContract(msg.sender,secondParty,shareProfit,expireYear,txHash,uint64(now),state,remark);\r\n    }\r\n\r\n    //\r\n    function confirmContract(uint160 txHash,CustomerContract.ContractState state)public{\r\n        contractService.confirmContract(txHash,state);\r\n    }\r\n\r\n    //\r\n    function getContracts(uint128 start,uint128 rows,CustomerContract.ContractState state)public view returns(uint160[6][]) {\r\n        contractService.getContractList(start,rows,state);\r\n    }\r\n\r\n    //ID\r\n    function getContractDetail(uint160 txHash) public view returns(address,address,uint32,uint32,uint160,uint64,CustomerContract.ContractState,string){\r\n        return contractService.getContractDetail(txHash);\r\n    }\r\n\r\n    //\r\n    function transform(address to,uint64 amount,uint160 txHash,string remark) public whenNotPaused{\r\n        transactionService.transform(msg.sender,to,amount,txHash,uint64(now),remark);\r\n    }\r\n\r\n    //\r\n    function addFund(address to,uint160 txHash,uint64 amount,string remark) public whenNotPaused returns(address touser,uint balance){\r\n        transactionService.addFund(to, txHash, amount, remark);\r\n    }\r\n\r\n    //\r\n    function getTransactions(address to,uint128 start,uint128 rows) public view returns(uint160[5][]){\r\n        return transactionService.getTransactions(to,start,rows);\r\n    }\r\n\r\n    //ID\r\n    function getTransactionDetail(uint160 txHash) public view returns(uint160, address, address, uint128, uint64, string){\r\n        return transactionService.getTransactionDetail(txHash);\r\n    }\r\n\r\n    //\r\n    function register(uint128 userId,string userName,uint64 balance){\r\n        accountService.register(userId,userName,balance);\r\n    }\r\n\r\n    //\r\n    function getAccount() public  view  returns(address,uint128,string,uint32,uint128){\r\n        return accountService.getAccount(msg.sender);\r\n    }\r\n\r\n    //\r\n    function getBalance( )public  view returns(uint128){\r\n        return accountService.getBalance(msg.sender);\r\n    }\r\n\r\n    //bytes20\r\n    function getAccountList()public  view  returns(bytes20[],string[]){\r\n        return accountService.getAccountList();\r\n    }\r\n\r\n    function refresh() public{\r\n        accountService=factory.getAccountService();\r\n        contractService=factory.getContractService();\r\n        transactionService=factory.getTransactionService();\r\n    }\r\n\r\n\r\n}\r\n",
  "sourcePath": "D:\\dapps\\TTVIP\\contracts\\core\\TTVIP.sol",
  "compiler": {
    "name": "solc",
    "version": "0.4.23+commit.124ca40d.Emscripten.clang"
  },
  "schemaVersion": "2.0.0",
  "updatedAt": "2018-05-17T09:40:41.149Z"
}