{
  "contractName": "TTVIPManage",
  "abi": [
    {
      "inputs": [
        {
          "name": "config_addr",
          "type": "address"
        },
        {
          "name": "tt_addr",
          "type": "address"
        }
      ],
      "payable": false,
      "stateMutability": "nonpayable",
      "type": "constructor"
    },
    {
      "constant": false,
      "inputs": [
        {
          "name": "con_name",
          "type": "string"
        },
        {
          "name": "ver_num",
          "type": "string"
        },
        {
          "name": "pub_addr",
          "type": "address"
        }
      ],
      "name": "publish",
      "outputs": [
        {
          "name": "",
          "type": "bool"
        }
      ],
      "payable": false,
      "stateMutability": "nonpayable",
      "type": "function"
    },
    {
      "constant": false,
      "inputs": [
        {
          "name": "con_name",
          "type": "string"
        },
        {
          "name": "ver_num",
          "type": "uint32"
        }
      ],
      "name": "rollback",
      "outputs": [
        {
          "name": "",
          "type": "bool"
        }
      ],
      "payable": false,
      "stateMutability": "nonpayable",
      "type": "function"
    }
  ],
  "bytecode": "0x608060405234801561001057600080fd5b5060405160408061118f8339810180604052810190808051906020019092919080519060200190929190505050816000806101000a81548173ffffffffffffffffffffffffffffffffffffffff021916908373ffffffffffffffffffffffffffffffffffffffff16021790555080600160006101000a81548173ffffffffffffffffffffffffffffffffffffffff021916908373ffffffffffffffffffffffffffffffffffffffff16021790555050506110c0806100cf6000396000f30060806040526004361061004c576000357c0100000000000000000000000000000000000000000000000000000000900463ffffffff1680630dd1c94c146100515780638605b5bc14610138575b600080fd5b34801561005d57600080fd5b5061011e600480360381019080803590602001908201803590602001908080601f0160208091040260200160405190810160405280939291908181526020018383808284378201915050505050509192919290803590602001908201803590602001908080601f0160208091040260200160405190810160405280939291908181526020018383808284378201915050505050509192919290803573ffffffffffffffffffffffffffffffffffffffff1690602001909291905050506101c9565b604051808215151515815260200191505060405180910390f35b34801561014457600080fd5b506101af600480360381019080803590602001908201803590602001908080601f0160208091040260200160405190810160405280939291908181526020018383808284378201915050505050509192919290803563ffffffff1690602001909291905050506103e5565b604051808215151515815260200191505060405180910390f35b6000600160009054906101000a900473ffffffffffffffffffffffffffffffffffffffff1673ffffffffffffffffffffffffffffffffffffffff1663fcb146af85846040518363ffffffff167c010000000000000000000000000000000000000000000000000000000002815260040180806020018373ffffffffffffffffffffffffffffffffffffffff1673ffffffffffffffffffffffffffffffffffffffff168152602001828103825284818151815260200191508051906020019080838360005b838110156102a857808201518184015260208101905061028d565b50505050905090810190601f1680156102d55780820380516001836020036101000a031916815260200191505b509350505050602060405180830381600087803b1580156102f557600080fd5b505af1158015610309573d6000803e3d6000fd5b505050506040513d602081101561031f57600080fd5b8101908080519060200190929190505050506103396107c0565b6000809054906101000a900473ffffffffffffffffffffffffffffffffffffffff1673ffffffffffffffffffffffffffffffffffffffff1663f8ac93e86040518163ffffffff167c0100000000000000000000000000000000000000000000000000000000028152600401600060405180830381600087803b1580156103be57600080fd5b505af11580156103d2573d6000803e3d6000fd5b505050506103de610c2a565b9392505050565b60006060600080600160009054906101000a900473ffffffffffffffffffffffffffffffffffffffff1673ffffffffffffffffffffffffffffffffffffffff166386825aa787876040518363ffffffff167c010000000000000000000000000000000000000000000000000000000002815260040180806020018363ffffffff1663ffffffff168152602001828103825284818151815260200191508051906020019080838360005b838110156104a957808201518184015260208101905061048e565b50505050905090810190601f1680156104d65780820380516001836020036101000a031916815260200191505b509350505050600060405180830381600087803b1580156104f657600080fd5b505af115801561050a573d6000803e3d6000fd5b505050506040513d6000823e3d601f19601f82011682018060405250606081101561053457600080fd5b81019080805164010000000081111561054c57600080fd5b8281019050602081018481111561056257600080fd5b815185600182028301116401000000008211171561057f57600080fd5b50509291906020018051906020019092919080519060200190929190505050925092509250600160009054906101000a900473ffffffffffffffffffffffffffffffffffffffff1673ffffffffffffffffffffffffffffffffffffffff16638b32b02a87836040518363ffffffff167c010000000000000000000000000000000000000000000000000000000002815260040180806020018373ffffffffffffffffffffffffffffffffffffffff1673ffffffffffffffffffffffffffffffffffffffff168152602001828103825284818151815260200191508051906020019080838360005b83811015610681578082015181840152602081019050610666565b50505050905090810190601f1680156106ae5780820380516001836020036101000a031916815260200191505b509350505050602060405180830381600087803b1580156106ce57600080fd5b505af11580156106e2573d6000803e3d6000fd5b505050506040513d60208110156106f857600080fd5b8101908080519060200190929190505050506107126107c0565b6000809054906101000a900473ffffffffffffffffffffffffffffffffffffffff1673ffffffffffffffffffffffffffffffffffffffff1663f8ac93e86040518163ffffffff167c0100000000000000000000000000000000000000000000000000000000028152600401600060405180830381600087803b15801561079757600080fd5b505af11580156107ab573d6000803e3d6000fd5b505050506107b7610c2a565b50505092915050565b600160009054906101000a900473ffffffffffffffffffffffffffffffffffffffff1673ffffffffffffffffffffffffffffffffffffffff1663879c30c66040518163ffffffff167c010000000000000000000000000000000000000000000000000000000002815260040180806020018281038252600e8152602001807f4163636f756e7453657276696365000000000000000000000000000000000000815250602001915050602060405180830381600087803b15801561088257600080fd5b505af1158015610896573d6000803e3d6000fd5b505050506040513d60208110156108ac57600080fd5b810190808051906020019092919050505073ffffffffffffffffffffffffffffffffffffffff16638456cb596040518163ffffffff167c0100000000000000000000000000000000000000000000000000000000028152600401600060405180830381600087803b15801561092057600080fd5b505af1158015610934573d6000803e3d6000fd5b50505050600160009054906101000a900473ffffffffffffffffffffffffffffffffffffffff1673ffffffffffffffffffffffffffffffffffffffff1663879c30c66040518163ffffffff167c010000000000000000000000000000000000000000000000000000000002815260040180806020018281038252600f8152602001807f436f6e7472616374536572766963650000000000000000000000000000000000815250602001915050602060405180830381600087803b1580156109fa57600080fd5b505af1158015610a0e573d6000803e3d6000fd5b505050506040513d6020811015610a2457600080fd5b810190808051906020019092919050505073ffffffffffffffffffffffffffffffffffffffff16638456cb596040518163ffffffff167c0100000000000000000000000000000000000000000000000000000000028152600401600060405180830381600087803b158015610a9857600080fd5b505af1158015610aac573d6000803e3d6000fd5b50505050600160009054906101000a900473ffffffffffffffffffffffffffffffffffffffff1673ffffffffffffffffffffffffffffffffffffffff1663879c30c66040518163ffffffff167c01000000000000000000000000000000000000000000000000000000000281526004018080602001828103825260128152602001807f5472616e73616374696f6e536572766963650000000000000000000000000000815250602001915050602060405180830381600087803b158015610b7257600080fd5b505af1158015610b86573d6000803e3d6000fd5b505050506040513d6020811015610b9c57600080fd5b810190808051906020019092919050505073ffffffffffffffffffffffffffffffffffffffff16638456cb596040518163ffffffff167c0100000000000000000000000000000000000000000000000000000000028152600401600060405180830381600087803b158015610c1057600080fd5b505af1158015610c24573d6000803e3d6000fd5b50505050565b600160009054906101000a900473ffffffffffffffffffffffffffffffffffffffff1673ffffffffffffffffffffffffffffffffffffffff1663879c30c66040518163ffffffff167c010000000000000000000000000000000000000000000000000000000002815260040180806020018281038252600e8152602001807f4163636f756e7453657276696365000000000000000000000000000000000000815250602001915050602060405180830381600087803b158015610cec57600080fd5b505af1158015610d00573d6000803e3d6000fd5b505050506040513d6020811015610d1657600080fd5b810190808051906020019092919050505073ffffffffffffffffffffffffffffffffffffffff16633f4ba83a6040518163ffffffff167c0100000000000000000000000000000000000000000000000000000000028152600401600060405180830381600087803b158015610d8a57600080fd5b505af1158015610d9e573d6000803e3d6000fd5b50505050600160009054906101000a900473ffffffffffffffffffffffffffffffffffffffff1673ffffffffffffffffffffffffffffffffffffffff1663879c30c66040518163ffffffff167c010000000000000000000000000000000000000000000000000000000002815260040180806020018281038252600f8152602001807f436f6e7472616374536572766963650000000000000000000000000000000000815250602001915050602060405180830381600087803b158015610e6457600080fd5b505af1158015610e78573d6000803e3d6000fd5b505050506040513d6020811015610e8e57600080fd5b810190808051906020019092919050505073ffffffffffffffffffffffffffffffffffffffff16633f4ba83a6040518163ffffffff167c0100000000000000000000000000000000000000000000000000000000028152600401600060405180830381600087803b158015610f0257600080fd5b505af1158015610f16573d6000803e3d6000fd5b50505050600160009054906101000a900473ffffffffffffffffffffffffffffffffffffffff1673ffffffffffffffffffffffffffffffffffffffff1663879c30c66040518163ffffffff167c01000000000000000000000000000000000000000000000000000000000281526004018080602001828103825260128152602001807f5472616e73616374696f6e536572766963650000000000000000000000000000815250602001915050602060405180830381600087803b158015610fdc57600080fd5b505af1158015610ff0573d6000803e3d6000fd5b505050506040513d602081101561100657600080fd5b810190808051906020019092919050505073ffffffffffffffffffffffffffffffffffffffff16633f4ba83a6040518163ffffffff167c0100000000000000000000000000000000000000000000000000000000028152600401600060405180830381600087803b15801561107a57600080fd5b505af115801561108e573d6000803e3d6000fd5b505050505600a165627a7a7230582096722dbb90e49216a1632245882286e78c0b13809115a5db222b1bae72ada5dd0029",
  "source": "pragma solidity ^0.4.2;\r\nimport \"./Config.sol\";\r\nimport \"./TTVIP.sol\";\r\n\r\ncontract TTVIPManage {\r\n\r\n    TTVIP ttvip;\r\n    Config config;\r\n\r\n    function TTVIPManage(address config_addr,address tt_addr) public{\r\n        ttvip=TTVIP(config_addr);\r\n        config=Config(tt_addr);\r\n    }\r\n\r\n\r\n    modifier onlyAdmin() {\r\n        require(config.isAdmin(msg.sender));\r\n        _;\r\n    }\r\n\r\n    //发布新版本\r\n    function publish(string con_name,string ver_num,address pub_addr)public  returns(bool){\r\n        config.publishNewVersion(con_name,pub_addr);\r\n        pause();\r\n        //更新发布地址，调用TTIVP的refresh更新合约实例\r\n        ttvip.refresh();\r\n        unpause();\r\n    }\r\n\r\n    //回滚\r\n    function rollback(string con_name,uint32 ver_num)public  returns(bool){\r\n        var(name,ver,addr)= config.getVersionInfo(con_name,ver_num);\r\n        config.setCurrentVersion(con_name,addr);\r\n        pause();\r\n        //更新发布地址，调用TTIVP的refresh更新合约实例\r\n        ttvip.refresh();\r\n        unpause();\r\n    }\r\n\r\n\r\n    function pause() internal {\r\n\r\n        AccountService(config.getCurrentVersion(\"AccountService\")).pause();\r\n        ContractService(config.getCurrentVersion(\"ContractService\")).pause();\r\n        TransactionService(config.getCurrentVersion(\"TransactionService\")).pause();\r\n    }\r\n\r\n    function unpause()internal {\r\n        AccountService(config.getCurrentVersion(\"AccountService\")).unpause();\r\n        ContractService(config.getCurrentVersion(\"ContractService\")).unpause();\r\n        TransactionService(config.getCurrentVersion(\"TransactionService\")).unpause();\r\n    }\r\n}\r\n",
  "sourcePath": "D:\\dapps\\TTVIP\\contracts\\core\\TTVIPManage.sol",
  "compiler": {
    "name": "solc",
    "version": "0.4.23+commit.124ca40d.Emscripten.clang"
  },
  "schemaVersion": "2.0.0",
  "updatedAt": "2018-05-17T09:40:45.339Z"
}